:020000040800F2
:1000000000500020E1020008B1010008B30100081F
:10001000B5010008B7010008B901000800000000A0
:10002000000000000000000000000000BB0100080C
:10003000BD01000800000000BF010008C101000868
:1000400029030008290300082903000829030008E0
:10005000290300082903000829030008F903000800
:1000600029030008290300082903000829030008C0
:1000700029030008290300082903000829030008B0
:1000800029030008290300082903000829030008A0
:100090002903000829030008290300082903000890
:1000A0002903000829030008290300082903000880
:1000B00029030008290300080000000029030008A4
:1000C00029030008000000000000000029030008C8
:1000D00000000000ED0600082903000800000000F1
:1000E0002903000829030008290300080000000074
:1000F0000000000000000000000000000000000000
:0C01000000000000000000005FF808F1A3
:10010C000348044B834202D0034B03B1184770479A
:10011C000400002004000020000000000548064BED
:10012C001B1AD90F01EBA301491002D0034B03B1E9
:10013C001847704704000020040000200000000055
:10014C0010B5064C237843B9FFF7DAFF044B13B113
:10015C000448AFF300800123237010BD040000207D
:10016C00000000002C08000808B5054B1BB1054920
:10017C000548AFF30080BDE80840FFF7CFBF00BFD4
:10018C0000000000080000202C08000808B500F052
:10019C00C7F800F055F900F0F1F808BD08B5FFF705
:1001AC00F5FFFEE77047FEE7FEE7FEE7FEE7704768
:1001BC00704770477047000082B000230193009392
:1001CC002C4A136843F4803313602A4B1B6803F4E6
:1001DC0000330093019B01330193009B1BB9019BDE
:1001EC00B3F5A06FF1D1234B1B6813F4003F06D07D
:1001FC0001230093009B012B04D002B07047002315
:10020C000093F7E71C4B1A6842F010021A601A6848
:10021C0022F007021A601A6842F002021A60A3F573
:10022C0080535A685A605A685A605A6842F480621D
:10023C005A605A6822F47C125A605A6842F4E812E6
:10024C005A601A6842F080721A600A4B1B6813F0ED
:10025C00007FFAD0074B5A6822F003025A605A68A2
:10026C0042F002025A60034B5B6803F00C03082B4C
:10027C00F9D1C2E7001002400020024008B5FFF798
:10028C009BFF08BD08B5104B1A6842F001021A60BA
:10029C0059680E4A0A405A601A6822F0847222F495
:1002AC0080321A601A6822F480221A605A6822F48A
:1002BC00FE025A604FF41F029A60FFF7DFFF044BF7
:1002CC004FF000629A6008BD001002400000FFF879
:1002DC0000ED00E0FFF7D6FF0B480C490C4A002359
:1002EC0002E0D458C4500433C4188C42F9D3094AE0
:1002FC00094C002301E013600432A242FBD300F04E
:10030C00FFF9FFF74BFF70470000002004000020AE
:10031C005008000804000020C0010020FEE7000087
:10032C004FF0E022136923F004031361034B0922FD
:10033C001A70034B42F228321A80704722000020B8
:10034C0020000020B0B10C4A128800FB02F24FF0E2
:10035C00E0235A6100229A6101221A614FF0E023D6
:10036C001B6903F00113012BF8D04FF0E02300229E
:10037C001A619A61704700BF2000002030B585B02B
:10038C000121042000F074F90121084600F070F9F5
:10039C0048238DF80F300224ADF80C4003238DF860
:1003AC000E3003A9104800F0E3F80121002000F002
:1003BC0043F9019400238DF808300C238DF8093093
:1003CC0001258DF80A5001A800F086F807238DF856
:1003DC0000308DF801408DF802408DF803506846CE
:1003EC0000F04AF805B030BD0008014008B50A20FD
:1003FC00FFF7A8FF0221084800F012F920B9074BBB
:10040C001B782BB100F00CF8022000F0ABF808BD03
:10041C00012000F005F8F7E7000801402400002057
:10042C0010B5044602464FF40051034800F0FFF8A3
:10043C00024B1C7010BD00BF0010014024000020B6
:10044C0000B583B00121102000F012F910238DF8B3
:10045C0007304FF40053ADF8043002238DF806300A
:10046C0001A9044800F084F80120FFF7D9FF03B07C
:10047C005DF804FB00100140C378F3B1144BDB684A
:10048C00DB43C3F30223C3F1040C0F21D9404278A0
:10049C0002FA0CF283780B40134302781B01DBB297
:1004AC000C490A4482F80033037803F01F005B09FF
:1004BC000122824041F823207047037803F01F018A
:1004CC005B0901228A402033024941F823207047FE
:1004DC0000ED00E000E100E08379002B35D010B492
:1004EC001F4B1A68016822EA01021A605A680168F7
:1004FC0022EA01025A60027902F1804202F582324C
:10050C0011680468214311609A68016822EA0102AB
:10051C009A60DA68016822EA0102DA604379102BEA
:10052C0009D003F1804303F582331A6801680A434A
:10053C001A6010BC70470A4B9A6801680A439A60AB
:10054C00DA6801680A43DA60F3E7037903F1804360
:10055C0003F582331A68016822EA01021A607047B7
:10056C0000040140014B5861704700BF000401407A
:10057C0030B5CB7803F00F02964613F0100F03D072
:10058C0091F802E04EEA020E0B78FBB105680023ED
:10059C0001E042610133072B17D801229A40B1F8D0
:1005AC0000C032EA0C0CF5D19C004FF00F0C0CFA89
:1005BC0004FC25EA0C050EFA04F42543CC78282C0F
:1005CC00E7D0482CE6D10261E4E705600B88FF2BED
:1005DC0025D94568002303E0CC78482C1CD0013386
:1005EC00072B1BD803F1080C012202FA0CF2B1F80C
:1005FC0000C032EA0C0CF2D19C004FF00F0C0CFA3C
:10060C0004FC25EA0C0C0EFA04F444EA0C05CC7834
:10061C00282CE1D14261DFE70261E0E7456030BDA3
:10062C008368194201D001207047002070470AB13D
:10063C00016170474161704710B401F003029200F0
:10064C004FF00F0C0CFA02FC8908084B023153F8DE
:10065C00214024EA0C0443F8214053F821409040F7
:10066C00044343F8214010BC704700BF0000014018
:10067C0021B1054A9369034393617047024A936918
:10068C0023EA00039361704700100240C94389B20A
:10069C0001807047C1F3421201F01F0C012303FAD1
:1006AC000CF3012A0FD0022A11D0828A92B2134085
:1006BC00090A012202FA01F1028892B20A4053B1EE
:1006CC005AB900207047828992B21340F0E7028A2F
:1006DC0092B21340ECE700207047012070470000F5
:1006EC0008B540F225510548FFF7D4FF00B908BD05
:1006FC0020210248FFF7CAFFF9E700BF003801408C
:10070C0070B50F4B0F4DAB42A3EB050607D0002481
:10071C00B61055F8043B01349847A642F9D800F0BE
:10072C007FF8094D094B5E1BAB424FEAA60606D07B
:10073C00002455F8043B01349847A642F9D870BD03
:10074C004408000844080008440800084C08000845
:10075C00704700BF704700BF024B13B1024800F056
:10076C0005B870470000000085070008002301460B
:10077C001A46184600F014B838B5074D074C2C1B18
:10078C00A41005D0013C55F8043D9847002CF9D134
:10079C00BDE8384000F04AB8500800084C08000882
:1007AC002DE9F8431B4D0646286898460F4691469E
:1007BC00FFF7CEFF184B1C681CB3286865681F2D0B
:1007CC0022DC4EB96B1C0235636044F82570FFF7D0
:1007DC00C1FF0020BDE8F883012304EB8501C1F8BB
:1007EC008890D4F88821AB401A43022EC4F8882193
:1007FC00C1F80881E6D1D4F88C211A43C4F88C21B5
:10080C00E0E7064C1C60D8E7FFF7A4FF4FF0FF3081
:10081C00E0E700BF000000202C000020300000208A
:10082C00F8B500BFF8BC08BC9E467047F8B500BFD1
:08083C00F8BC08BC9E467047A1
:080844006507000875010008BA
:04084C004D01000852
:04085000280000205C
:04000005080002E10C
:00000001FF
