:020000040800F2
:10000000005000200D030008DD010008DF0100089A
:10001000E1010008E3010008E5010008000000001C
:10002000000000000000000000000000E7010008E0
:10003000E901000800000000EB010008ED010008E4
:100040005503000855030008550300085503000830
:100050005503000855030008550300085503000820
:100060005503000855030008550300085503000810
:100070005503000855030008550300085503000800
:1000800055030008550300085503000855030008F0
:1000900055030008550300085503000855030008E0
:1000A00055030008550300085503000855030008D0
:1000B0005503000855030008000000005503000820
:1000C0005503000800000000000000005503000870
:1000D0000000000071050008550300080000000042
:1000E00055030008550300085503000800000000F0
:1000F0000000000000000000000000000000000000
:0C01000000000000000000005FF808F1A3
:10010C000348044B834202D0034B03B1184770479A
:10011C000400002004000020000000000548064BED
:10012C001B1AD90F01EBA301491002D0034B03B1E9
:10013C001847704704000020040000200000000055
:10014C0010B5064C237843B9FFF7DAFF044B13B113
:10015C000448AFF300800123237010BD040000207D
:10016C0000000000B006000808B5054B1BB105499E
:10017C000548AFF30080BDE80840FFF7CFBF00BFD4
:10018C000000000008000020B006000808B500F0D0
:10019C00DDF800F035F908BD08B5FFF7F7FF0B4C9B
:1001AC0000224FF40051204600F09EF94FF4FA70F3
:1001BC0000F0FAF801224FF40051204600F094F9B7
:1001CC004FF4FA7000F0F0F8E9E700BF00100140BE
:1001DC007047FEE7FEE7FEE7FEE7704770477047A3
:1001EC007047000082B00023019300932C4A1368DF
:1001FC0043F4803313602A4B1B6803F400330093E1
:10020C00019B01330193009B1BB9019BB3F5A06FBC
:10021C00F1D1234B1B6813F4003F06D0012300934C
:10022C00009B012B04D002B0704700230093F7E72A
:10023C001C4B1A6842F010021A601A6822F007026E
:10024C001A601A6842F002021A60A3F580535A68C9
:10025C005A605A685A605A6842F480625A605A6806
:10026C0022F47C125A605A6842F4E8125A601A68F6
:10027C0042F080721A600A4B1B6813F0007FFAD0B0
:10028C00074B5A6822F003025A605A6842F0020285
:10029C005A60034B5B6803F00C03082BF9D1C2E7DF
:1002AC00001002400020024008B5FFF79BFF08BD7C
:1002BC0008B5104B1A6842F001021A6059680E4AD0
:1002CC000A405A601A6822F0847222F480321A6052
:1002DC001A6822F480221A605A6822F4FE025A60CC
:1002EC004FF41F029A60FFF7DFFF044B4FF00062E0
:1002FC009A6008BD001002400000FFF800ED00E01D
:10030C00FFF7D6FF0B480C490C4A002302E0D458E7
:10031C00C4500433C4188C42F9D3094A094C002345
:10032C0001E013600432A242FBD300F02BF9FFF77B
:10033C0033FF70470000002004000020D4060008A2
:10034C0004000020C0010020FEE700004FF0E02276
:10035C00136923F004031361034B09221A70034B36
:10036C0042F228321A807047220000202000002020
:10037C00B0B10C4A128800FB02F24FF0E0235A6134
:10038C0000229A6101221A614FF0E0231B6903F0ED
:10039C000113012BF8D04FF0E02300221A619A616F
:1003AC00704700BF2000002038B50C4CA4FB003473
:1003BC0063091C464FF4FA7202FB130085B205E088
:1003CC004FF4FA70FFF7D4FF013CE4B2002CF7D1E4
:1003DC0005B938BD2846FFF7CBFFFAE7D34D6210BD
:1003EC0010B5044602464FF40051034800F07CF867
:1003FC00024B1C7010BD00BF0010014024000020F7
:10040C0000B583B00121102000F074F810238DF892
:10041C0007304FF40053ADF8043002238DF806304A
:10042C0001A9044800F008F80020FFF7D9FF03B039
:10043C005DF804FB0010014030B5CB7803F00F02DF
:10044C00964613F0100F03D091F802E04EEA020E1C
:10045C000B78FBB10568002301E042610133072BE7
:10046C0017D801229A40B1F800C032EA0C0CF5D131
:10047C009C004FF00F0C0CFA04FC25EA0C050EFA4C
:10048C0004F42543CC78282CE7D0482CE6D1026123
:10049C00E4E705600B88FF2B25D94568002303E0B2
:1004AC00CC78482C1CD00133072B1BD803F1080C3B
:1004BC00012202FA0CF2B1F800C032EA0C0CF2D1B3
:1004CC009C004FF00F0C0CFA04FC25EA0C0C0EFAF5
:1004DC0004F444EA0C05CC78282CE1D14261DFE726
:1004EC000261E0E7456030BD0AB1016170474161CE
:1004FC007047000021B1054A93690343936170472B
:10050C00024A936923EA000393617047001002408A
:10051C00C94389B201807047C1F3421201F01F0C2C
:10052C00012303FA0CF3012A0FD0022A11D0828A7C
:10053C0092B21340090A012202FA01F1028892B226
:10054C000A4053B15AB900207047828992B21340C5
:10055C00F0E7028A92B21340ECE7002070470120CA
:10056C007047000008B540F225510548FFF7D4FF4D
:10057C0000B908BD20210248FFF7CAFFF9E700BF08
:10058C000038014070B50F4B0F4DAB42A3EB050685
:10059C0007D00024B61055F8043B01349847A64206
:1005AC00F9D800F07FF8094D094B5E1BAB424FEABE
:1005BC00A60606D0002455F8043B01349847A64201
:1005CC00F9D870BDC8060008C8060008C80600089F
:1005DC00D0060008704700BF704700BF024B13B134
:1005EC00024800F005B8704700000000090600083A
:1005FC00002301461A46184600F014B838B5074DCA
:10060C00074C2C1BA41005D0013C55F8043D984711
:10061C00002CF9D1BDE8384000F04AB8D4060008E7
:10062C00D00600082DE9F8431B4D0646286898466D
:10063C000F469146FFF7CEFF184B1C681CB3286879
:10064C0065681F2D22DC4EB96B1C0235636044F8C3
:10065C002570FFF7C1FF0020BDE8F883012304EBF0
:10066C008501C1F88890D4F88821AB401A43022E3A
:10067C00C4F88821C1F80881E6D1D4F88C211A433A
:10068C00C4F88C21E0E7064C1C60D8E7FFF7A4FF08
:10069C004FF0FF30E0E700BF000000202C000020EE
:1006AC0030000020F8B500BFF8BC08BC9E4670476F
:0C06BC00F8B500BFF8BC08BC9E467047B3
:0806C800E905000875010008B6
:0406D0004D010008D0
:0406D40028000020DA
:040000050800030DDF
:00000001FF
