:020000040800F2
:1000000000500020C9020008990100089B01000867
:100010009D0100089F010008A101000800000000E8
:10002000000000000000000000000000A301000824
:10003000A501000800000000A7010008A9010008B0
:100040001103000811030008110300081103000840
:100050001103000811030008110300081103000830
:100060001103000811030008110300081103000820
:100070001103000811030008110300081103000810
:100080001103000811030008110300081103000800
:1000900011030008110300081103000811030008F0
:1000A00011030008110300081103000811030008E0
:1000B00011030008110300080000000011030008EC
:1000C00011030008000000000000000011030008F8
:1000D00000000000110300081103000800000000E8
:1000E00011030008110300081103000800000000BC
:1000F0000000000000000000000000000000000000
:0C01000000000000000000005FF808F1A3
:10010C000348044B834202D0034B03B1184770479A
:10011C000400002004000020000000000548064BED
:10012C001B1AD90F01EBA301491002D0034B03B1E9
:10013C001847704704000020040000200000000055
:10014C0010B5064C237843B9FFF7DAFF044B13B113
:10015C000448AFF300800123237010BD040000207D
:10016C00000000006804000808B5054B1BB10549E8
:10017C000548AFF30080BDE80840FFF7CFBF00BFD4
:10018C000000000008000020680400087047FEE72B
:10019C00FEE7FEE7FEE770477047704770470000C8
:1001AC0082B00023019300932C4A136843F48033EC
:1001BC0013602A4B1B6803F400330093019B01333B
:1001CC000193009B1BB9019BB3F5A06FF1D1234B9D
:1001DC001B6813F4003F06D001230093009B012BF6
:1001EC0004D002B0704700230093F7E71C4B1A6849
:1001FC0042F010021A601A6822F007021A601A689C
:10020C0042F002021A60A3F580535A685A605A6889
:10021C005A605A6842F480625A605A6822F47C121E
:10022C005A605A6842F4E8125A601A6842F08072B6
:10023C001A600A4B1B6813F0007FFAD0074B5A6800
:10024C0022F003025A605A6842F002025A60034BD1
:10025C005B6803F00C03082BF9D1C2E700100240D5
:10026C000020024008B5FFF79BFF08BD08B5104BF6
:10027C001A6842F001021A6059680E4A0A405A6024
:10028C001A6822F0847222F480321A601A6822F4FE
:10029C0080221A605A6822F4FE025A604FF41F0240
:1002AC009A60FFF7DFFF044B4FF000629A6008BDC5
:1002BC00001002400000FFF800ED00E0FFF7D6FF51
:1002CC000B480C490C4A002302E0D458C4500433A8
:1002DC00C4188C42F9D3094A094C002301E013607D
:1002EC000432A242FBD300F029F800F010F870475A
:1002FC0000000020040000208C04000804000020F2
:10030C00BC010020FEE708B500F006F808BD08B5F2
:10031C00FFF7F9FFFEE700004FF0E022136923F02E
:10032C0004031361034B09221A70034B42F2283267
:10033C001A807047220000202000002070B50F4B5F
:10034C000F4DAB42A3EB050607D00024B61055F8B1
:10035C00043B01349847A642F9D800F07FF8094DC8
:10036C00094B5E1BAB424FEAA60606D0002455F89B
:10037C00043B01349847A642F9D870BD80040008AC
:10038C00800400088004000888040008704700BF3F
:10039C00704700BF024B13B1024800F005B870471C
:1003AC0000000000C1030008002301461A4618464D
:1003BC0000F014B838B5074D074C2C1BA41005D011
:1003CC00013C55F8043D9847002CF9D1BDE8384064
:1003DC0000F04AB88C040008880400082DE9F843A2
:1003EC001B4D0646286898460F469146FFF7CEFFF0
:1003FC00184B1C681CB3286865681F2D22DC4EB98D
:10040C006B1C0235636044F82570FFF7C1FF0020B8
:10041C00BDE8F883012304EB8501C1F88890D4F87A
:10042C008821AB401A43022EC4F88821C1F80881F8
:10043C00E6D1D4F88C211A43C4F88C21E0E7064CA1
:10044C001C60D8E7FFF7A4FF4FF0FF30E0E700BFD8
:10045C0000000020280000202C000020F8B500BF70
:10046C00F8BC08BC9E467047F8B500BFF8BC08BC89
:04047C009E467047E1
:08048000A1030008750100084A
:040488004D0100081A
:04048C002400002028
:04000005080002C924
:00000001FF
