:020000040800F2
:1000000000500020010E0008150C0008170C000815
:10001000190C00081B0C00081D0C00080000000053
:100020000000000000000000000000001F0C00089D
:10003000210C000800000000230C0008250C00081B
:10004000490E0008490E0008490E0008490E000834
:10005000490E0008490E0008490E00086510000806
:10006000490E0008490E0008490E0008490E000814
:10007000490E0008490E0008490E0008490E000804
:10008000490E0008490E0008490E0008490E0008F4
:10009000490E0008490E0008490E0008490E0008E4
:1000A000490E0008490E0008490E0008490E0008D4
:1000B000490E0008490E000800000000490E000823
:1000C000490E00080000000000000000490E000872
:1000D0000000000029170008ED18000800000000CB
:1000E000490E0008490E0008490E000800000000F3
:1000F0000000000000000000000000000000000000
:0C01000000000000000000005FF808F1A3
:1001100081F0004102E000BF83F0004330B54FEAB8
:1001200041044FEA430594EA050F08BF90EA020F25
:100130001FBF54EA000C55EA020C7FEA645C7FEAB8
:10014000655C00F0E2804FEA5454D4EB5555B8BFDB
:100150006D420CDD2C4480EA020281EA030382EA4C
:10016000000083EA010180EA020281EA0303362DDE
:1001700088BF30BD11F0004F4FEA01314FF4801CB1
:100180004CEA113102D0404261EB410113F0004FC3
:100190004FEA03334CEA133302D0524263EB43037A
:1001A00094EA050F00F0A780A4F10104D5F1200E18
:1001B0000DDB02FA0EFC22FA05F2801841F1000173
:1001C00003FA0EF2801843FA05F359410EE0A5F147
:1001D00020050EF1200E012A03FA0EFC28BF4CF078
:1001E000020C43FA05F3C01851EBE37101F000452E
:1001F00007D54FF0000EDCF1000C7EEB00006EEB3B
:100200000101B1F5801F1BD3B1F5001F0CD34908C4
:100210005FEA30004FEA3C0C04F101044FEA44521B
:1002200012F5800F80F09A80BCF1004F08BF5FEAA2
:10023000500C50F1000041EB045141EA050130BD82
:100240005FEA4C0C404141EB0101013C28BFB1F594
:10025000801FE9D291F0000F04BF01460020B1FADF
:1002600081F308BF2033A3F10B03B3F120020CDAB2
:100270000C3208DD02F1140CC2F10C0201FA0CF090
:1002800021FA02F10CE002F11402D8BFC2F1200CF5
:1002900001FA02F120FA0CFCDCBF41EA0C019040AB
:1002A000E41AA2BF01EB0451294330BD6FEA0404F4
:1002B0001F3C1CDA0C340EDC04F11404C4F12002DF
:1002C00020FA04F001FA02F340EA030021FA04F3F1
:1002D00045EA030130BDC4F10C04C4F1200220FA48
:1002E00002F001FA04F340EA0300294630BD21FA86
:1002F00004F0294630BD94F0000F83F4801306BF4C
:1003000081F480110134013D4EE77FEA645C18BF3F
:100310007FEA655C29D094EA050F08BF90EA020FD6
:1003200005D054EA000C04BF1946104630BD91EACE
:10033000030F1EBF0021002030BD5FEA545C05D1D1
:100340004000494128BF41F0004130BD14F5800410
:100350003CBF01F5801130BD01F0004545F0FE4184
:1003600041F470014FF0000030BD7FEA645C1ABFB9
:10037000194610467FEA655C1CBF0B46024650EAF0
:10038000013406BF52EA033591EA030F41F400211C
:1003900030BD00BF90F0000F04BF0021704730B5A2
:1003A0004FF4806404F132044FF000054FF0000177
:1003B00050E700BF90F0000F04BF0021704730B538
:1003C0004FF4806404F1320410F0004548BF40420D
:1003D0004FF000013EE700BF42004FEAE2014FEA62
:1003E00031014FEA02701FBF12F07F4393F07F4F3D
:1003F00081F06051704732F07F4208BF704793F040
:100400007F4F04BF41F40021704730B54FF4607452
:1004100001F0004521F000411CE700BF50EA010255
:1004200008BF704730B54FF000050AE050EA0102FE
:1004300008BF704730B511F0004502D5404261EB6E
:1004400041014FF4806404F132045FEA915C3FF4AF
:10045000D8AE4FF003025FEADC0C18BF03325FEA4C
:10046000DC0C18BF033202EBDC02C2F1200300FAFD
:1004700003FC20FA02F001FA03FE40EA0E0021FA22
:1004800002F11444BDE600BF70B54FF0FF0C4CF410
:10049000E06C1CEA11541DBF1CEA135594EA0C0FC2
:1004A00095EA0C0F00F0DEF82C4481EA030621EAFD
:1004B0004C5123EA4C5350EA013518BF52EA033538
:1004C00041F4801143F4801338D0A0FB02CE4FF0EA
:1004D0000005E1FB02E506F00042E0FB03E54FF01A
:1004E0000006E1FB03569CF0000F18BF4EF0010E12
:1004F000A4F1FF04B6F5007F64F5407404D25FEA0E
:100500004E0E6D4146EB060642EAC62141EA5551C0
:100510004FEAC52040EA5E504FEACE2EB4F1FD0C02
:1005200088BFBCF5E06F1ED8BEF1004F08BF5FEA80
:10053000500E50F1000041EB045170BD06F0004632
:1005400046EA010140EA020081EA0301B4EB5C04DF
:10055000C2BFD4EB0C0541EA045170BD41F48011D7
:100560004FF0000E013C00F3AB8014F1360FDEBFFC
:10057000002001F0004170BDC4F10004203C35DAD8
:100580000C341BDC04F11404C4F1200500FA05F35B
:1005900020FA04F001FA05F240EA020001F00042FC
:1005A00021F0004110EBD37021FA04F642EB060172
:1005B0005EEA430E08BF20EAD37070BDC4F10C049C
:1005C000C4F1200500FA04F320FA05F001FA04F260
:1005D00040EA020001F0004110EBD37041F100014C
:1005E0005EEA430E08BF20EAD37070BDC4F1200557
:1005F00000FA05F24EEA020E20FA04F301FA05F2BF
:1006000043EA020321FA04F001F0004121FA04F266
:1006100020EA020000EBD3705EEA430E08BF20EA36
:10062000D37070BD94F0000F0FD101F00046400070
:1006300041EB010111F4801F08BF013CF7D041EAF2
:10064000060195F0000F18BF704703F000465200F6
:1006500043EB030313F4801F08BF013DF7D043EAC7
:100660000603704794EA0C0F0CEA135518BF95EA7D
:100670000C0F0CD050EA410618BF52EA4306D1D104
:1006800081EA030101F000414FF0000070BD50EA23
:10069000410606BF1046194652EA430619D094EAAD
:1006A0000C0F02D150EA013613D195EA0C0F05D197
:1006B00052EA03361CBF104619460AD181EA0301EB
:1006C00001F0004141F0FE4141F470014FF00000A3
:1006D00070BD41F0FE4141F4780170BD70B54FF03E
:1006E000FF0C4CF4E06C1CEA11541DBF1CEA1355BE
:1006F00094EA0C0F95EA0C0F00F0A7F8A4EB0504A0
:1007000081EA030E52EA03354FEA013100F0888096
:100710004FEA03334FF0805545EA131343EA12635F
:100720004FEA022245EA111545EA10654FEA002614
:100730000EF000419D4208BF964244F1FD0404F5CD
:10074000407402D25B084FEA3202B61A65EB030529
:100750005B084FEA32024FF480104FF4002CB6EBE6
:10076000020E75EB030E22BFB61A754640EA0C0066
:100770005B084FEA3202B6EB020E75EB030E22BFA6
:10078000B61A754640EA5C005B084FEA3202B6EBE7
:10079000020E75EB030E22BFB61A754640EA9C00A6
:1007A0005B084FEA3202B6EB020E75EB030E22BF76
:1007B000B61A754640EADC0055EA060E18D04FEA34
:1007C000051545EA16754FEA06164FEAC30343EAD4
:1007D00052734FEAC2025FEA1C1CC0D111F4801FA1
:1007E0000BD141EA00014FF000004FF0004CB6E79A
:1007F00011F4801F04BF01430020B4F1FD0C88BF39
:10080000BCF5E06F3FF6AFAEB5EB030C04BFB6EB43
:10081000020C5FEA500C50F1000041EB045170BD36
:100820000EF0004E4EEA113114EB5C04C2BFD4EB63
:100830000C0541EA045170BD41F480114FF0000EE7
:10084000013C90E645EA060E8DE60CEA135594EA63
:100850000C0F08BF95EA0C0F3FF43BAF94EA0C0F66
:100860000AD150EA01347FF434AF95EA0C0F7FF4DB
:1008700025AF104619462CE795EA0C0F06D152EA2F
:1008800003353FF4FDAE1046194622E750EA410613
:1008900018BF52EA43067FF4C5AE50EA41047FF424
:1008A0000DAF52EA43057FF4EBAE12E74FEA410287
:1008B00012F5001215D211D56FF47873B3EB6252B2
:1008C00012D94FEAC12343F0004343EA505311F0D9
:1008D000004F23FA02F018BF404270474FF000006B
:1008E000704750EA013005D111F0004008BF6FF0A9
:1008F000004070474FF00000704700BF844641EA57
:10090000000313F0030349D1403A23D30B6803607B
:100910004B6843608B688360CB68C3600B6903617D
:100920004B6943618B698361CB69C3610B6A036265
:100930004B6A43628B6A8362CB6AC3620B6B03634D
:100940004B6B43638B6B8363CB6BC3634030403132
:10095000403ADBD230320BD30B6803604B68436004
:100960008B688360CB68C36010301031103AF3D2CB
:100970000C3205D351F8043B40F8043B043AF9D259
:10098000043208D0D2071CBF11F8013B00F8013B2C
:1009900001D30B8803806046704700BF082A13D339
:1009A0008B07B1D010F00303AED0C3F10403D21A09
:1009B000DB071CBF11F8013B00F8013BA4D331F861
:1009C000023B20F8023B9FE7043AD9D3013A11F8E1
:1009D000013B00F8013BF9D20B7803704B78437070
:1009E0008B788370604670474FF0FF3C06E000BF95
:1009F0004FF0010C02E000BF4FF0010C4DF804CDA8
:100A00004FEA410C7FEA6C5C4FEA430C18BF7FEA67
:100A10006C5C1BD001B050EA410C0CBF52EA430C95
:100A200091EA030F02BF90EA020F0020704710F115
:100A3000000F91EA030F58BF994208BF90422CBFA4
:100A4000D8176FEAE37040F0010070474FEA410C9D
:100A50007FEA6C5C02D150EA013C07D14FEA430CBB
:100A60007FEA6C5CD6D152EA033CD3D05DF8040B2C
:100A7000704700BF8446104662468C46194663465E
:100A800000E000BF01B5FFF7B7FF002848BF10F135
:100A9000000F01BD4DF808EDFFF7F4FF0CBF01207A
:100AA00000205DF808FB00BF4DF808EDFFF7EAFFF6
:100AB00034BF012000205DF808FB00BF4DF808EDB1
:100AC000FFF7E0FF94BF012000205DF808FB00BFA6
:100AD0004DF808EDFFF7CEFF94BF012000205DF830
:100AE00008FB00BF4DF808EDFFF7C4FF34BF01203D
:100AF00000205DF808FB00BF4FEA410C7FEA6C5C08
:100B000002D150EA013C0AD14FEA430C7FEA6C5C07
:100B100002D152EA033C02D14FF0000070474FF07F
:100B2000010070470348044B834202D0034B03B1DA
:100B300018477047D0060020D006002000000000B3
:100B40000548064B1B1AD90F01EBA301491002D02F
:100B5000034B03B118477047D0060020D006002091
:100B60000000000010B5064C237843B9FFF7DAFF08
:100B7000044B13B10448AFF300800123237010BD70
:100B8000D006002000000000388C000808B5054B96
:100B90001BB105490548AFF30080BDE80840FFF7E9
:100BA000CFBF00BF00000000D4060020388C000832
:100BB00008B500F04BF900F07FFA00F01BFA4FF493
:100BC000E13000F0C9FC4FF4E13000F01DFD07E01A
:100BD0000849094800F086FD4FF47A7000F07EF96C
:100BE00000F0E8F90028F3D10449034800F07AFD49
:100BF00008BD00BF508C000800380140608C000820
:100C000008B5FFF7D5FF00F0EDFD4FF47A7000F066
:100C100049F9FAE77047FEE7FEE7FEE7FEE77047AF
:100C20007047704770470120704708B501F030FDEC
:100C3000162303604FF0FF3008BD08B54FF0FF31B9
:100C4000FFF7F3FFFEE770B50C461646002506E0F9
:100C5000AFF30080214601F8010B01350C46B54287
:100C6000F6DB304670BD70B50C461646002504E034
:100C700014F8010BAFF300800135B542F8DB3046C4
:100C800070BD4FF0FF3070474FF400534B600020B1
:100C900070470120704700207047000010B50346E0
:100CA0000C4A0D490D48006840B10C4800680344E7
:100CB000521A934206D8094A136010BD0748084CDF
:100CC0000460F2E701F0E4FC0C2303604FF0FF3016
:100CD000F3E700BF0050002000040000EC060020F5
:100CE000100C002082B00023019300932C4A13685B
:100CF00043F4803313602A4B1B6803F400330093E2
:100D0000019B01330193009B1BB9019BB3F5A06FBD
:100D1000F1D1234B1B6813F4003F06D0012300934D
:100D2000009B012B04D002B0704700230093F7E72B
:100D30001C4B1A6842F010021A601A6822F007026F
:100D40001A601A6842F002021A60A3F580535A68CA
:100D50005A605A685A605A6842F480625A605A6807
:100D600022F47C125A605A6842F4E8125A601A68F7
:100D700042F080721A600A4B1B6813F0007FFAD0B1
:100D8000074B5A6822F003025A605A6842F0020286
:100D90005A60034B5B6803F00C03082BF9D1C2E7E0
:100DA000001002400020024008B5FFF79BFF08BD7D
:100DB00008B5104B1A6842F001021A6059680E4AD1
:100DC0000A405A601A6822F0847222F480321A6053
:100DD0001A6822F480221A605A6822F4FE025A60CD
:100DE0004FF41F029A60FFF7DFFF044B4FF00062E1
:100DF0009A6008BD001002400000FFF800ED00E01E
:100E0000FFF7D6FF0B480C490C4A002302E0D458E8
:100E1000C4500433C4188C42F9D3094A094C002346
:100E200001E013600432A242FBD301F045FCFFF75E
:100E3000E7FE704700000020D00600203C9100082B
:100E4000D0060020100C0020FEE700004FF0E0224A
:100E5000136923F004031361034B09221A70034B37
:100E600042F228321A807047F2060020F006002075
:100E70000B4B1B7803FB00F04FF0E023586100227E
:100E80009A6101221A614FF0E0231B6903F00113FC
:100E9000012BF8D04FF0E02300221A619A617047CD
:100EA000F2060020B0B10C4A128800FB02F24FF0AB
:100EB000E0235A6100229A6101221A614FF0E02377
:100EC0001B6903F00113012BF8D04FF0E02300223F
:100ED0001A619A61704700BFF006002038B50C4CCB
:100EE000A4FB003463091C464FF4FA7202FB1300A2
:100EF00085B205E04FF4FA70FFF7D4FF013CE4B28D
:100F0000002CF7D105B938BD2846FFF7CBFFFAE72B
:100F1000D34D621010B50D4C236823F00F032360EE
:100F2000236843F00303236000220121204600F0E0
:100F3000BCF91420FFF7B6FF01221146204600F04D
:100F4000B4F91E20FFF794FF10BD00BF0008014058
:100F500010B5174B1A6822F00F021A601A6842F097
:100F600008021A6000240121114800F095F938B1F7
:100F7000632C05D80134E4B20120FFF779FFF2E7D2
:100F8000632C11D8002404E00134E4B20120FFF7FF
:100F90006FFF0121064800F07FF908B9632CF3D9EF
:100FA000632C03D8002010BD0120FCE70120FAE7E4
:100FB0000008014030B583B00121042000F0F0F9B1
:100FC0000125ADF8045010238DF8073003238DF868
:100FD0000630074C01A9204600F006F929462046B4
:100FE00000F061F9FFF796FFFFF7B2FF03B030BDE5
:100FF0000008014030B585B00121042000F0D0F98F
:101000000121084600F0CCF948238DF80F30022466
:10101000ADF80C4003238DF80E3003A9104800F002
:10102000E3F80121002000F045F9019400238DF838
:1010300008300C238DF8093001258DF80A5001A8DD
:1010400000F086F807238DF800308DF801408DF808
:1010500002408DF80350684600F04AF805B030BDF4
:101060000008014008B50A20FFF71CFF02210848CC
:1010700000F012F920B9074B1B782BB100F00CF8E7
:10108000022000F0ABF808BD012000F005F8F7E7FA
:1010900000080140F406002010B5044602464FF453
:1010A0000051034800F001F9024B1C7010BD00BF55
:1010B00000100140F406002000B583B0012110208B
:1010C00000F06EF910238DF807304FF40053ADF89F
:1010D000043002238DF8063001A9044800F084F89A
:1010E0000120FFF7D9FF03B05DF804FB00100140B9
:1010F000C378F3B1144BDB68DB43C3F30223C3F1C2
:10110000040C0F21D940427802FA0CF283780B408C
:10111000134302781B01DBB20C490A4482F8003306
:10112000037803F01F005B090122824041F823206D
:101130007047037803F01F015B0901228A402033C6
:10114000024941F82320704700ED00E000E100E093
:101150008379002B35D010B41F4B1A68016822EA3E
:1011600001021A605A68016822EA01025A60027993
:1011700002F1804202F58232116804682143116055
:101180009A68016822EA01029A60DA68016822EA34
:101190000102DA604379102B09D003F1804303F593
:1011A00082331A6801680A431A6010BC70470A4B00
:1011B0009A6801680A439A60DA6801680A43DA604B
:1011C000F3E7037903F1804303F582331A6801687A
:1011D00022EA01021A60704700040140014B586185
:1011E000704700BF0004014030B5CB7803F00F0218
:1011F000964613F0100F03D091F802E04EEA020E6B
:101200000B78FBB10568002301E042610133072B35
:1012100017D801229A40B1F800C032EA0C0CF5D17F
:101220009C004FF00F0C0CFA04FC25EA0C050EFA9A
:1012300004F42543CC78282CE7D0482CE6D1026171
:10124000E4E705600B88FF2B25D94568002303E000
:10125000CC78482C1CD00133072B1BD803F1080C89
:10126000012202FA0CF2B1F800C032EA0C0CF2D101
:101270009C004FF00F0C0CFA04FC25EA0C0C0EFA43
:1012800004F444EA0C05CC78282CE1D14261DFE774
:101290000261E0E7456030BD8368194201D001205A
:1012A000704700207047016170470AB101617047C3
:1012B0004161704710B401F0030292004FF00F0C2F
:1012C0000CFA02FC8908084B023153F8214024EA49
:1012D0000C0443F8214053F821409040044343F864
:1012E000214010BC704700BF0000014010B4274BE4
:1012F0005B6803F00C03042B25D0082B26D0002BB1
:1013000041D1234B0360214A5368C3F30313214C9B
:10131000E15C0368CB4043605168C1F30221615C2A
:1013200023FA01F181605168C1F3C221615CCB40B5
:10133000C3605268C2F3813217498A5CB3FBF2F38F
:10134000036110BC7047124B0360DCE70F4A53681F
:101350005268C3F38343023312F4803F04D10F4A2F
:1013600002FB03F30360CEE7084A526812F4003F21
:1013700004D00A4A02FB03F30360C4E7044A02FBF9
:1013800003F30360BFE7024B0360BCE700100240B9
:1013900000127A00D88E0008D48E000800093D00A3
:1013A00021B1054A9369034393617047024A9369E7
:1013B00023EA0003936170470010024021B1054AFF
:1013C000D3690343D3617047024AD36923EA000318
:1013D000D36170470010024030B587B004460D4617
:1013E000038A9BB2CA8823F4405313430382838940
:1013F0009BB2898828896A8901430A4323F4B05340
:1014000023F00C031343A381A38A9BB2AA8923F47C
:1014100040731343A38201A8FFF768FF1D4B9C4252
:1014200024D0039BA28912F4004F21D103EB830344
:1014300003EB83032A689200B3FBF2F3164AA2FB84
:10144000031252091101642002FB1033A28912F425
:10145000004F16D11B0132330F4AA2FB0323C3F303
:1014600043130B439BB2238107B030BD049BD9E7E4
:1014700003EB830303EB83032A685200B3FBF2F30D
:10148000DCE7DB003233044AA2FB0323C3F342133D
:101490000B43E7E7003801401F85EB5129B18389F1
:1014A0009BB243F400538381704783899BB223F43A
:1014B00000539BB283817047C1F3421C01F01F01AE
:1014C00001238B40BCF1010F08D0BCF1020F07D003
:1014D00014303AB102681343036070470C30F8E7E8
:1014E0001030F6E7026822EA030303607047C1F395
:1014F0000801818070470388194201D0012070479C
:1015000000207047C94389B201807047C1F342127D
:1015100001F01F0C012303FA0CF3012A0FD0022A59
:1015200011D0828A92B21340090A012202FA01F113
:10153000028892B20A4053B15AB90020704782899A
:1015400092B21340F0E7028A92B21340ECE7002017
:101550007047012070470000F0B587B004460121B4
:101560000420FFF71DFF01214FF48040FFF718FF13
:1015700018238DF817304FF40073ADF8143003279B
:101580008DF8167005AE1F4D31462846FFF72CFE2C
:1015900004238DF817304FF48063ADF814308DF8C4
:1015A000167031462846FFF71FFE01940024ADF85F
:1015B00010400C23ADF80E30ADF80C40ADF80A40E9
:1015C000ADF8084005F5405501A92846FFF704FF8E
:1015D00001212846FFF762FF012240F225512846EB
:1015E000FFF76AFF25238DF8003001238DF80330C3
:1015F0008DF8014002238DF802306846FFF778FD30
:1016000007B0F0BD000801402DE9F04186B0044666
:1016100001210420FFF7C4FE01214FF40030FFF741
:10162000CDFE18238DF817304FF00408ADF8148064
:1016300003278DF8167005AE1E4D31462846FFF77C
:10164000D3FD8DF817800823ADF814308DF816708F
:1016500031462846FFF7C8FD01940024ADF810403C
:101660000C23ADF80E30ADF80C40ADF80A40ADF8E3
:101670000840A5F544450DEB08012846FFF7ACFEF0
:1016800001212846FFF70AFF012240F22551284692
:10169000FFF712FF26238DF8003001238DF8033069
:1016A0008DF801408DF802406846FFF721FD06B035
:1016B000BDE8F08100080140F8B504460D46174624
:1016C00000260CE015F8011B2046FFF710FF402113
:1016D0002046FFF710FF0028F9D00136B6B2BE420F
:1016E000F0D3F8BD0EB430B5CCB004464FAB53F8D0
:1016F000042B019302AD4FF49471284600F0B2FC24
:1017000009E001352046FFF7F2FE40212046FFF7B1
:10171000F2FE0028F9D029780029F2D14CB0BDE8BA
:10172000304003B07047000008B540F2255105482D
:10173000FFF7ECFE00B908BD20210248FFF7E2FEEA
:10174000F9E700BF0038014008B54FF400720021EE
:10175000034800F0C1FC034B00221A8008BD00BF03
:10176000FC060020F8060020084B1B885BB1084AE5
:101770001288934203D0064A13800120704700204C
:10178000024B188070470120704700BFF806002008
:10179000F606002070B504460E4600F0BDFF82B28A
:1017A00021460E48FFF788FFC82203E00A20FFF712
:1017B00079FB2246531EDCB272B1FFF7D5FF054616
:1017C0000028F3D13146064800F0A4FE0028EDD0F1
:1017D000FFF7BAFF284670BD0125FBE70044004033
:1017E000FC06002030B583B001210420FFF7D8FDAE
:1017F00010238DF807304FF48045ADF804500323D3
:101800008DF806302C4C01A92046FFF7EDFC002294
:1018100029462046FFF749FDFA20FFF743FB012246
:1018200029462046FFF741FD4FF4FA70FFF73AFBD7
:10183000FFF78AFF21492248FFF754FF03E04FF4E6
:10184000FA70FFF72FFB1F491F48FFF7A3FF00287F
:10185000F5D11E491A48FFF745FF03E04FF4FA702F
:10186000FFF720FB17491A48FFF794FF0028F5D12E
:1018700018491348FFF736FF03E04FF4FA70FFF7FB
:1018800011FB10491448FFF785FF0028F5D11349D3
:101890000B48FFF727FF03E04FF4FA70FFF702FB56
:1018A0000F491048FFF776FF0028F5D10E4904488C
:1018B000FFF718FF03B030BD00100140748C000822
:1018C000003801407C8C0008808C0008888C00085F
:1018D000948C0008A48C0008B48C0008C48C000808
:1018E000D08C0008D88C0008048D000808B540F2A0
:1018F00025510D48FFF70AFEA0B10C4B1B88B3F52C
:10190000007F02D3094B00221A8007488188074ACA
:10191000138803F1010CA2F800C0054AD15420211C
:10192000FFF7F0FD08BD00BF00440040F8060020AE
:10193000FC0600202DE9F04F01F10B05162D06469F
:1019400083B024D8102900F2AE8000F0B1FA10253F
:1019500018234FF0020CC04F3B445C68A3F108020F
:10196000944200F05F8130466368E268A16823F02A
:101970000303CA60234491605A68083442F00102AC
:101980005A6000F09BFA204603B0BDE8F08F35F0B6
:10199000070500F18880A94200F2858000F088FAEE
:1019A000B5F5FC7FC0F0B1816B0A00F08380042B99
:1019B00000F26E81AB0903F1390C03F1380E4FEAE6
:1019C000CC00A54F384444680838A04207D10DE048
:1019D000002AE16880F22081884207D00C466368C3
:1019E00023F003035A1B0F2AF2DDF446DFF86C8262
:1019F0003C69444500F0FD80636823F00309A9EBCE
:101A000005030F2B00F38681002BC7E9048880F2C1
:101A10007081B9F5007FD7F804E080F00A810123D6
:101A20004FEAD9014FEA5919194403FA09F357F853
:101A300031204EEA030E07EBC103083BA260E360CE
:101A4000C7F804E047F83140D46001204FEAAC0306
:101A50009840704535D810EA0E0F07D12CF0030CD2
:101A6000400010EA0E0F0CF1040CF9D007EBCC0A81
:101A7000D646E146DEF80C300BE059681C4621F0F2
:101A800003014A1B0F2ADB6800F30F81002A80F252
:101A900023819E45F1D109F1010919F0030F0EF1DF
:101AA000080EE7D160E10C2333600024204603B028
:101AB000BDE8F08F4FF400704FF0400C4FF03F0E38
:101AC0007FE7BC68636823F00309A94504D3A9EB49
:101AD00005030F2B00F39080614B08201B6803F176
:101AE000100804EB0903009300F0D8FD5D4A83461B
:101AF0001368A844013305D008F1FF3880444342FD
:101B000003EA08084146304600F0B0FDB0F1FF3F5F
:101B10008246544A00F0198104EB0903834200F223
:101B20001281514B0BF1FF3C18684044186000F0E3
:101B300068811168013100F0708104EB0902AAEBA1
:101B4000020202441A601AF00702CDE9002300F0F5
:101B50002A81C2F108029244D04408EA0C015A4496
:101B6000521A02EA0C0B5946304600F07FFD421C27
:101B7000019B00F06F81A0EB0A0000EB0B081868D6
:101B800048F001025844BC42C7F808A01860CAF8DF
:101B9000042017D0B9F10F0F40F242814FF0050C2D
:101BA0006168A9F10C0222F0070201F00101114362
:101BB00061600F2A04EB0201C1E901CC00F25281FD
:101BC000DAF804205446294B1968814238BF18605E
:101BD000274B1968814238BF186022F00308A845D6
:101BE000A8EB050301D30F2B06DC304600F066F9A5
:101BF0005BE7D7F804E028E7621943F0010345F0FA
:101C0000010565603046BA600834536000F056F94B
:101C1000204603B0BDE8F08FA2683046D16023446F
:101C20008A60A9E6DC68A3427FF49DAE0CF1020C49
:101C3000DCE6B9F5206F4FEA59227DD3142A00F271
:101C4000C58002F15C03DB005B32F918FB580839F0
:101C5000994212D19EE000BF080000201000002031
:101C60002C09002000000020FC080020280900208A
:101C7000240900209B68994204D05A6822F003028C
:101C80004A45F7D8D968C4E902318C60DC60DCE6EB
:101C9000142B5DD9542B00F2A2802B0B03F16F0C97
:101CA00003F16E0E4FEACC008BE6D4F808C0304644
:101CB000661945F001056560CCF80C30C3F808C022
:101CC00042F00103C7E90466C6E902887360625006
:101CD00000F0F4F80834E9E621444A68304642F05E
:101CE00001024A6054F8082FD3609A6000F0E6F8C9
:101CF000DCE6A144D9F80430304643F00103C9F8CA
:101D0000043000F0DBF80834D0E64FEAD50C05F1DA
:101D1000080320E6621943F0010145F00105656002
:101D20003046C7E90422C2E90288516044F809300C
:101D300000F0C4F80834B9E64FEA991202F1390309
:101D4000DB00383281E7BC4254D0BC68626844E7AB
:101D500003F15C0C03F15B0E4FEACC0031E65AF85C
:101D60000839534540F09F801CF0030F0CF1FF3CF5
:101D7000F5D17B6823EA00037B60400098423FF680
:101D8000A0AE18B99DE6400009F104091842FAD046
:101D9000CC466BE60120921000FA02F24EEA020EE7
:101DA000C7F804E06FE70AEB080202EA0C02ABEBAB
:101DB000020202EA0C0B5946304600F057FC431C65
:101DC000019B7FF4D8AEDDF800B0D8E6542A2BD8BA
:101DD0004FEA193202F16F03DB006E3235E7B3F5DB
:101DE000AA7F2BD8EB0B03F1780C03F1770E4FEAA7
:101DF000CC00E6E52D4B0BF1FF3C18684044186021
:101E000097E61AEA0C0F7FF494AED7F808A0C844FE
:101E100048F00102CAF80420D4E6C2F800A092E615
:101E20000123CAF80430E0E6B2F5AA7F25D84FEACC
:101E3000D93202F17803DB00773206E740F25452E0
:101E4000934225D8AB0C03F17D0C03F17C0E4FEAD5
:101E5000CC00B6E5009A4FF0000B083A9044A8EB8E
:101E60000A088CE6304604F10801009300F0EEFC0D
:101E7000009BD7F808A01868A2E640F254539A4293
:101E80000DD84FEA994202F17D03DB007C32DCE69B
:101E90004FF47E704FF07F0C4FF07E0E91E54FF4C3
:101EA0007E737E22D1E67B6867E700BFFC080020D6
:101EB000014800F02DBC00BF6C0A0020014800F072
:101EC00029BC00BF6C0A0020024A0349034802F003
:101ED000D9BE00BF10040020214D000820040020BE
:101EE0000C4B416810B59942044601D002F018FF2E
:101EF000A168094B994202D0204602F011FFE16827
:101F0000064B994204D02046BDE8104002F008BFBD
:101F100010BD00BF3009002098090020000A0020F1
:101F20002DE9F84300250423304C314A3149DFF8CC
:101F3000C890DFF8C880324F324E116004F15C0067
:101F400029460822C4E90335C4E90055C4E905550A
:101F5000A560656600F0C0F804F15800C4E90749BF
:101F6000C4E90987E66200F0CFFB274B2946082227
:101F700004F1C4006367C4E91A55C4E91E55256716
:101F8000C4F8CC50C4F8805000F0A6F804F16803FF
:101F900004F1C000C4F88430C4E92298C4E924766E
:101FA00000F0B2FB194B294604F596700822C4F8DC
:101FB000DC30C4E93455C4E93855C4F8D850C4F805
:101FC0003451C4F8E85000F087F804F1D003C4E9B4
:101FD0003D87C4F8F09004F59470C4F8FC60C4F830
:101FE000EC30BDE8F84300F08FBB00BF30090020A3
:101FF000680A0020C91E0008594F00087D4F0008DC
:10200000BD4F0008E14F0008090001001200020066
:1020100010B504460A4800F07BFB636B23B9094BFB
:10202000094A1B68626323B1BDE81040044800F010
:1020300071BBFFF775FFBDE81040014800F06ABBB7
:10204000740A0020680A0020E11E0008014800F020
:102050005FBB00BF740A0020014800F05BBB00BFFB
:10206000740A002030B51B4C002924689BB02BDB80
:102070004FF00005009004904FF402701995ADF8F0
:102080000C004FF6FF7511D00139029105912046E1
:102090006946ADF80E5000F0CDFC421C01DA8B23EE
:1020A00023600022009B1A701BB030BD0291059185
:1020B00020466946ADF80E5000F0BCFC431C01DA26
:1020C0008B2323601BB030BD8B234FF0FF30236088
:1020D000F8E700BF1C040020830730B546D08446D3
:1020E000841805E0634603F8011B9D0703D09C4656
:1020F000A445F7D130BD013A0244A2EB0C02032AF9
:1021000029D9CCB204EB04240F2A04EB04442FD9C0
:10211000A2F1100C2CF00F0C03F11005AC44C3E934
:102120000044C3E9024410336345F8D112F00C0FA8
:1021300002F00F0E18D01A462EF0030C9C44AEF19C
:10214000040542F8044B6245FBD125F00304043337
:102150000EF003022344002ACCD0C9B21A4403F87B
:10216000011B9342FBD130BD7246F4E70346C6E73C
:102170009646E0E711F0FF01034600F0030239D074
:102180008ABB026810B501EB012E0EEB0E4E8EEAF3
:102190000204A2F1013323EA0203A4F1013222EA8C
:1021A0000402134313F0803F0FD150F8044F84EA28
:1021B0000E0CA4F10133ACF1013223EA040322EA4C
:1021C0000C02134313F0803FEFD0037823B936E0BD
:1021D00010F8013F002B32D09942F9D110BD8A424C
:1021E00028D09A0729D01A7818460133002AF6D148
:1021F00010467047CAB90268A2F1013323EA02030C
:1022000013F0803F08D150F8042FA2F1013323EAE4
:10221000020313F0803FF6D003785BB110F8013F62
:10222000002BFBD17047990705D0184613F8012BF6
:10223000002AF8D170471846DDE71846A1E718468E
:1022400010BD00BF01292DE9F0415AD901274FF0F7
:10225000000E4FF0FF34BC463B4607E09E464FF071
:10226000010C1F1B0EEB0C0399420ED9051915F832
:102270000C50C65CAE42F1D333D00127BC46744645
:10228000BE440EEB0C039942F0D84FF001084FF01A
:10229000000E4FF0FF35C4464346176008E09E46E7
:1022A0004FF0010CA3EB05080EEB0C0399420FD97C
:1022B000461916F80C60C75CB742F0D819D04FF039
:1022C0000108C4467546C6440EEB0C039942EFD88C
:1022D0000135601C854202D32846C2F80080BDE863
:1022E000F081BC450ABFE6440CF1010C4FF0010C33
:1022F000B8E7C4450ABFE6440CF1010C4FF0010CED
:10230000D2E74FF001080025E6E700BF2DE9F04FC6
:102310009346ADF21C4D05AE324680468A4658467D
:1023200019461C46FFF78EFF334681460DF21442D4
:1023300043F8044F9342FBD16CB1601E58440BF13B
:10234000FF3212F8011F06ADA31A013B5B44824223
:1023500045F82130F5D133684A4658460BEB030166
:10236000019302F041FE002879D10746054644F466
:102370000063AAEB040E0293661EAE4512D308EB6F
:10238000050C1CF8063006AA52F82330CBB127B151
:10239000019A9A4284BF1346E31A1D44AE454FF09A
:1023A0000007ECD208EB0A00029902F081FE824499
:1023B000AAEB040EAE45E2D200200DF21C4DBDE8A2
:1023C000F08F4F453B4638BF4B469E4218D9591EA9
:1023D000EA1859444244009502E001339E420ED06F
:1023E00012F8010B11F8015F8542F6D09E42009D64
:1023F00006D9C9F101022A440027D518BDE7009D7E
:102400004F4509F1FF3380F0828005EB0902424419
:102410000BEB09010095CDF80C9002E09F4213D020
:102420004B4611F8015D12F8010D03F1FF398542A9
:10243000F4D0009DDDF80C90013301379F4209D89C
:10244000019B1D44E71A98E701379F42009DDDF884
:102450000C90F5D960460DF21C4DBDE8F08FA4EB51
:1024600009034B4538BF4B460025013344F4006255
:10247000AAEB040E0092671E01933360AE4509D3A8
:1024800008EB0500C35D06AA52F823306BB11D446A
:10249000AE45F5D208EB0A00009902F009FE82442D
:1024A000AAEB040EAE45EBD286E7B94517D209F187
:1024B000FF3105EB09024B465944424402E0013327
:1024C000BB420CD012F8016B11F801CFB445F6D025
:1024D0009F4204D9C9F101022A44D518CEE7B9F1C7
:1024E000000F3FF46AAF05EB090141440BEB090211
:1024F00003E0013B5B453FF460AF134611F8016D0B
:1025000012F801CDB445F4D0019B1D44C0E74B4601
:1025100093E700BF2DE9F0410D460978044690B0DD
:1025200000294AD06A78002A6AD0AB78002B48D0BC
:10253000E878002878D02B79002B66D0284600F068
:10254000EBF80646204646F4007102F0B1FD8642E3
:1025500045D8FE2E00F28180801B27184022684655
:10256000711CFFF7B9FD6EB16A1E5FFA86FC901907
:1025700012F8013F03F03F03A91A6B4461449042F3
:102580001970F5D1013CA35D03F03F036B441B7848
:102590001C44A74203D227E04444A74224D314F8A2
:1025A00006C032460CF03F0CEC44294620469CF80D
:1025B000008002F019FD0028EED1204610B0BDE8E1
:1025C000F081007842EA014238B140EA03439A427E
:1025D00014F8010FF8D1023CEFE79A42FBD0002437
:1025E000204610B0BDE8F081BB5DB819002BF6D0D5
:1025F0004FF4006102F05CFD0744A742C2D2EEE74F
:1026000010B0BDE8F041FFF7B5BD2278002AE6D052
:10261000296809BA204642EA032314F8012FB2B10F
:102620008B42F7D1C41EC8E7120442EA0162014698
:10263000207842EA032340EA010258B1B3EB022FAB
:1026400014F8010F4FEA0221F5D1033CB5E78B42A4
:10265000C5D1E7E78B42C2D1F7E7014633462A46A8
:10266000204610B0BDE8F041FFF750BE002238B55B
:10267000064D044608462A60FEF710FB431C00D0B6
:1026800038BD2B68002BFBD0236038BD7C0A0020AE
:10269000014B1868704700BF1C040020082802D1B5
:1026A0004FF48050704708B5FFF7F2FF162203463B
:1026B0004FF0FF301A6008BD70B50F4B0F4DAB42A5
:1026C000A3EB050607D00024B61055F8043B0134EF
:1026D0009847A642F9D806F0AFFA094D094B5E1BA0
:1026E000AB424FEAA60606D0002455F8043B01345D
:1026F0009847A642F9D870BD309100083091000883
:102700003091000838910008704700BF704700BF43
:10271000704700BF704700BF20F0030110F00300B6
:10272000C0F1000051F8043B00F1040C4FEACC0C5E
:102730006FF000021CBF22FA0CF213434FF0010CA1
:102740004CEA0C2C4CEA0C4CA3EB0C0222EA0302E0
:1027500012EACC1204BF51F8043B0430F4D0C2F1A9
:10276000000102EA0102B2FA82F2C2F11F0200EB9A
:10277000D2007047024B13B1024800F005B8704711
:102780000000000099510008002301461A4618462F
:1027900002F088BD2DE9F843064608208946FFF778
:1027A0007DFF0546DFF898803046FFF781FBD8F8BB
:1027B00008305F6827F00307A7F11104A4EB0904B0
:1027C0002C44B4FBF5F4013C05FB04F4A54208DC01
:1027D00000213046FFF74AFFD8F808303B449842C2
:1027E00005D03046FFF76AFB0020BDE8F88330468D
:1027F0006142FFF73BFF01300FD0124AD8F8083092
:102800003F1B47F001075F60136830461B1B1360D6
:10281000FFF754FB0120BDE8F88300213046FFF7A5
:1028200025FFD8F80820831A0F2BDADD43F00103C7
:102830005360054B03491B68C01A0860D1E700BF0D
:1028400008000020FC0800200000002000295AD0C9
:10285000F8B50C460746FFF72BFB54F804CC724D35
:10286000A4F108022CF00103D118A8684E68884230
:1028700026F003060CF0010E7CD04E6088194068EB
:1028800000F00100BEF1000F2ED154F8084C05F104
:10289000080C121B23449468644560D0D2F80CE005
:1028A000C4F80CE0CEF8084000287DD043F00100C9
:1028B00050600B60B3F5007F2ED25809D908012370
:1028C00083406868013103436B6055F8310005EBC4
:1028D000C103083BC2E9020345F83120C260384613
:1028E000BDE8F840FFF7EABA70B9334405F1080CC7
:1028F000886843F0010460456ED0C968C160886093
:102900005460D350D6E770474CF00101B3F5007F17
:1029100044F8041CD350D0D3B3F5206F4FEA5321B1
:1029200044D2990901F1390001F13804C100681855
:1029300069580838884203D155E08968884204D034
:102940004C6824F003049C42F7D8C868C2E902101E
:1029500082603846BDE8F840CA60FFF7AFBA80BB76
:102960001E44D1E90213CB60996046F00103536025
:102970009651B4E71E44BEF1000F07D154F8083C4D
:10298000D21A1E44D2E90213CB60996046F00103CB
:102990005360264BAA601B68B342A0D8244B38462C
:1029A0001968FFF7F7FE9AE73344A1E714290DD918
:1029B00054291FD8190B01F16F0001F16E04C100F9
:1029C000B5E743F0010050600B6088E701F15C005F
:1029D00001F15B04C100AAE7C5E90422C2E902CC07
:1029E0005460D3507BE70123A410A3406C682343B9
:1029F0006B60ABE7B1F5AA7F06D8D90B01F178007F
:102A000001F17704C10092E740F25450814206D8A8
:102A1000990C01F17D0001F17C04C10087E74FF4BE
:102A20007E717E2483E700BF0800002004000020A0
:102A30002C0900202DE9F04FDBB00C4615460A9119
:102A40000E93834602F050FB036818461793FFF776
:102A500063FE0822169000212AA8FFF73DFBA389F8
:102A60001B0603D52369002B01F0A9800023002455
:102A70009E46CDE92F33002331AACDE912342F46EB
:102A80001446CDE91AEE2E92CDF860E0CDF864E060
:102A9000CDF820E0CDF844E03D466E4BD3F8E4603D
:102AA00002F01CFB0DF1A80C03462A46584626A945
:102AB000CDF800C0B047002800F09F80C0F295809C
:102AC000269B252B01D00544E7E7B5EB0708064612
:102AD00040F0978000224FF0FF3392460793013574
:102AE0002B788DF88F20099299460135A9F12003A2
:102AF0005A2B00F2B180DFE813F03A02AF00AF00CA
:102B00003602AF00AF00AF001902AF00AF006A009D
:102B1000F301AF00EF01FC01AF00F8015B005B00C7
:102B20005B005B005B005B005B005B005B00AF0079
:102B3000AF00AF00AF00AF00AF00AF002301AF00A8
:102B40007901F702230123012301AF00AF00AF0099
:102B5000AF00F302AF00AF004402AF00AF00AF0020
:102B6000B601AF009902AF00AF00B707AF00AF00EA
:102B7000AF00AF00AF00AF00AF00AF002301AF0068
:102B80007901640123012301230118036401740006
:102B9000AF003103AF00220366033B037400AF00B4
:102BA000B6017200D202AF00AF002908AF00720078
:102BB0000022A9F1300315F8019B02EB820203EB1E
:102BC0004202A9F13003092BF5D909928EE70E9B39
:102BD00053F8042B002A09920E93C0F27A812B78C5
:102BE00082E72B784AF0200A7EE7082200212AA8F3
:102BF000FFF772FA012005444FE7B5EB07080646D8
:102C000010D02F9A309B01324344072AC4E9007840
:102C100030932F9215DC0834089B43440893002E10
:102C20007FF458AF309B002B41F058830A9B9B895F
:102C300003F04003002B41F0F08708985BB0BDE83B
:102C4000F08F58460A992EAA02F03EF80028EDD1DE
:102C500031ACE1E764050020B9F1000FE2D00023B8
:102C600001228DF804910C9241AF8DF88F300B93B7
:102C7000CDE90623CDE90F331493309E1AF0840377
:102C8000314600F0E2809DF88F20FAB14FF0000845
:102C90002F98012201300136626007280DF18F0262
:102CA000CDE92F06226000F3FB830834B8F1000F52
:102CB0000CD02F980222013002366260072824AA25
:102CC000CDE92F06226000F3DF830834802B00F06B
:102CD000E482079B0C9AA3EB0208B8F1000F00F303
:102CE00024831AF4807F40F081820C9B27601E446D
:102CF00063602F9B30960133072B2F9300F36D8376
:102D000008341AF0040F05D0099B069A9F1A002F69
:102D100000F3D483DDE9083206998A42ACBF9B18E0
:102D20005B180893002E40F0388300232F930B9BF1
:102D30001BB158460B99FFF789FD2F4631ACABE626
:102D40000E9B073323F00701F1E80223CDE912239C
:102D5000139B1E9223F000431F930E914FF0FF32FE
:102D6000DDE91E01AE4BFDF7C7FE002840F02186CD
:102D7000DDE91E014FF0FF32A94BFDF79FFE06462D
:102D8000002840F01686DDE91201002200232AF017
:102D9000800AFDF789FE002841F04B819DF88F30B5
:102DA000B9F1470FCCBF9F4F9F4F002B41F02186B9
:102DB0000322CDE90F330B930C92079314930692E1
:102DC0005BE71AF0200F40F0A5850E9A1AF0100F5D
:102DD00052F8046B41F026871AF0400F0E9201F072
:102DE0001C8146F3C038434636B28EE10E9BB9F1E2
:102DF000430F03F1040603D01AF0100F00F0B88659
:102E0000082200212CA8FFF767F90E9A41AF2CABDE
:102E100039465846126802F013FA034601330C9003
:102E200001F0F6860C9B23EAE373069300230E96CB
:102E3000309ECDE90F338DF88F300B9307931493A9
:102E40001AF0840331467FF41EAF099A0698A2EB6C
:102E50000008B8F1000F00F32B849DF88F20002AA2
:102E60003FF437AF12E70023DDF838808DF88F305C
:102E700058F8047B002F00F09186B9F1530F01F050
:102E800012801AF010030F9341F00D80079B002B66
:102E9000C1F236821A4638460F9902F091F99DF830
:102EA0008F300B90002801F08F850B9ACDF8388079
:102EB000D21B0C9222EAE272069213B1134601333E
:102EC00006930F9B4FF073090793149310930B9382
:102ED000D3E6099B5B4209932B784AF0040A03E688
:102EE0002B238DF88F302B78FEE52B784AF0800A63
:102EF000FAE5294611F8019BB9F12A0F01F0758610
:102F0000A9F13003092B98BF002201F22C8411F89B
:102F1000019B02EB820203EB4202A9F13003092B71
:102F2000F5D942EAE2730D460793DFE5584602F011
:102F3000DBF8436818461993FFF7EEFB1B90064633
:102F4000584602F0D1F881682B781A91002E3FF490
:102F5000CBAD00293FF4C8AD0A78002A3FF4C4ADD8
:102F60004AF4806AC0E52B784AF0010ABCE59DF876
:102F70008F202B78002A7FF4B7AD20228DF88F2088
:102F8000B2E51AF0200F4AF0100000F0BB840E9B4F
:102F9000073323F007031A46596852F8083B0E928C
:102FA00000228DF88F20079A002A18DB53EA0102CD
:102FB00020F4906A15D1079A9AB910F001031A46C5
:102FC000069300F04B8730238DF86731079B0C92F6
:102FD000CDE90F3314930B930DF267174DE620F4F0
:102FE000806A5AAF03F00702DB0843EA4173C9085D
:102FF000303253EA0106384607F8012DF2D11AF0B3
:1030000001010F9140F02383079A5AABDB1B9A42D0
:10301000B8BF1A460C930692149110910B912CE6AE
:10302000FFFFEF7F208D00081C8D00081AF0200F95
:103030004AF0100138D10E9B1A1D4FF000080E9B6C
:1030400007981B6840451E468DF88F80C0F280852A
:1030500021F0800A002B00F089840E920A2E78F16C
:10306000000380F0B78306F13003DBB28DF86731DF
:10307000079B0DF26717012BB8BF012306930123AD
:103080000C939DF88F30002B01F0A985069B01332E
:1030900006930023CDE90F330B931493EDE51AF05B
:1030A000200F00F04C8451460E9B073323F007039A
:1030B0001A46D3F8048000238DF88F30079B52F80E
:1030C000086B002B0E92C0F2448556EA080321F0EB
:1030D000800AC3D1079B002B00F04D840026C2E775
:1030E0002B784AF0080AFFE41AF0200F4AF010018A
:1030F00000F01A840E9B8A46073323F007031A4612
:103100005B6852F8086B98460E92002BC0F2518310
:10311000079A002AA2DB56EA08032AF0800A9DD10A
:10312000002A01F059803023A0E72B78682B03BFD9
:103130006B784AF4007A01354AF0400AD4E40E9ADA
:103140001AF0200F02F1040300F01E84126808999F
:103150001160C91751602F460E939DE42B786C2B9C
:1031600003BF6B784AF0200A01354AF0100ABBE42D
:10317000002647F630030E9A079F52F8041BB74209
:10318000ADF890308DF88F600B46C0F2E5842AF0E0
:10319000800040F0020A002940F0D586002F01F09F
:1031A000228030238DF86731012306974FF078098C
:1031B0008C46CDE90B1310910E9214910F910DF2E4
:1031C000671700F0A6BC1AF0200F40F0EF830E9AAC
:1031D0001AF0100152F8043B41F02A851AF0400021
:1031E00000F00B8750460E929BB2D9E6B9F1650FFD
:1031F00040F3FD80DDE9120100220023FDF74AFCC7
:10320000002800F0A081012363602F9BB24A0133A4
:103210000136072B30962F93226000F3388608344E
:10322000259B119A934280F26483169B179A1E4441
:10323000C4E900232F9B30960133072B2F9300F313
:10324000A1840834119B5F1E002F7FF75AAD102F09
:103250002F9B41F35384A14932464FF010080E468C
:10326000DDF82890159104E00834103F102F40F34A
:10327000A98001331032072BC4E90068CDE92F3251
:10328000F2DD494658462EAA01F01EFD002840F006
:103290008C80DDE92F3231ACE7E7099B069AA3EB7E
:1032A0000208B8F1000F7FF714ADB8F1100F2F9A94
:1032B00041F32C83DFF824C22146304610232E46EA
:1032C00064460A9DCDF854C006E0A8F11008B8F194
:1032D000100F01F1080118DD01321030072AC1E991
:1032E0000043CDE92F20F0DD294658462EAA01F0F3
:1032F000EBFC002859D1DDE92F20A8F11008B8F126
:10330000100F4FF0100331A9E6DC35460C46064697
:103310000132159B4644072ACDE92F262360C4F8C5
:10332000048000F3FE850834D3E46C4BB8F1100F31
:103330002F9A159324DD214610230A9C06E0A8F15C
:103340001008B8F1100F01F1080118DD01326348CF
:103350001036072AC1E90003CDE92F26EFDD21460B
:1033600058462EAA01F0B0FCF8B9DDE92F26A8F1E5
:103370001008B8F1100F4FF0100331A9E6DC0C462D
:103380000132159B4644072ACDE92F262360C4F855
:10339000048000F302820834A3E458460A992EAA56
:1033A00001F092FC00283FF4C0AC0B9B002B3FF4D3
:1033B0003DAC58460B99FFF749FA0A9B9B8903F0ED
:1033C000400337E41646159A01333E44072B22602A
:1033D0006760CDE92F367FF793AC58460A992EAA3D
:1033E00001F072FC0028E0D1309E31AC89E42F9BC3
:1033F000013603F10108119B04F10809012B40F388
:103400003D810123B8F1070FCDE92F862760636066
:1034100000F36282169B08F10108179A1E44B8F166
:10342000070FC9E90023CDE92F8600F3488209F18F
:103430000809119B0022DDE912015C1E0023FDF743
:1034400029FB002840F07E8108F10108013726445D
:10345000B8F1070FCDE92F86C9F80070C9F804400C
:1034600000F3198109F10809189A08F101031644BB
:10347000C9F80420072B28AACDE92F36C9F8002067
:10348000ABDC09F108043CE458460A992EAA1593CE
:1034900001F01AFC002888D1309E159B31AC15E450
:1034A00058460A992EAA159301F00EFC00287FF4C5
:1034B0007CAF309E159B31ACFFF7F8BB102F2F9BD4
:1034C00041F39481064AAA464FF010081546DDF8EC
:1034D000289015920BE000BF5C8D0008E88E000874
:1034E000F88E0008103F102F04F1080415DD013399
:1034F0001036072BC4E90058CDE92F36F2DD4946D6
:1035000058462EAA01F0E0FB00287FF44EAFDDE91B
:103510002F36103F102F31ACE9DC55460133159A98
:103520003E44072BC4E90027CDE92F367FF7F2ABE5
:1035300058460A992EAA01F0C7FB00287FF435AF40
:10354000309EFFF7E7BB2599002940F34C84DDF856
:103550003C90119B9945A8BF9946B9F1000F0ADD2F
:103560002F9B4E440133072BC4E9007930962F93EB
:1035700000F38C870834DDF83C80B9F1000FA8BF58
:10358000A8EB0908B8F1000F00F328830F9B1AF489
:10359000806F3B4440F04B83259A11998A4203DBAC
:1035A0001AF0010F00F03286169917980E44C4E9FC
:1035B00000012F993096013107292F9101F3828064
:1035C0000834119907EB0108A8EB03088F1AB845D6
:1035D000A8BFB846B8F1000F0BDD23602F9B46440F
:1035E0000133072BC4F8048030962F9301F3EF804A
:1035F0000834B8F1000FA8BFA7EB0807002F7FF72A
:1036000080AB102F2F9B41F37982C44932464FF093
:1036100010080E46DDF82890159104E00834103F9C
:10362000102F7FF7CFAE01331032072BC4E90068AB
:10363000CDE92F32F2DD494658462EAA01F044FB6F
:1036400000287FF4B2AEDDE92F3231ACE7E7302A53
:1036500000F0538430230238002207F8013C07466B
:103660005AAB1B1A0B920C930799CDE90F22994282
:10367000B8BF194614920691FFF7FFBA1AF0010F6E
:103680007FF4BFAE0123B8F1070FCDE92F86276085
:1036900063607FF7E9AE58460A992EAA01F014FB41
:1036A00000287FF482AEDDE92F860DF1C409DBE648
:1036B0002F9AB8F1100F41F35280DFF864C2204610
:1036C0002095102665460A9CCDF854C0219306E04B
:1036D000A8F11008B8F1100F00F1080017DD013251
:1036E0001031072AC0E90056CDE92F21F0DD21462F
:1036F00058462EAA01F0E8FA00287FF456AEDDE91C
:103700002F21A8F11008B8F1100F31A8E7DC04460A
:10371000209D219B159808EB01062060501C07286E
:10372000CDE92F06C4F8048000F382839DF88F2032
:103730000834002A40F0E280002B3FF4CAAA134666
:10374000FFF7B8BA119B012B7FF78EAE112B41F317
:103750005B8272493246434610270E46DDF82880C8
:10376000159105E009F10809103C102C40F31D8467
:1037700001331032072BC9E90067CDE92F32F1DDA3
:10378000414658462EAA01F09FFA00287FF40DAE5C
:10379000DDE92F320DF1C409E6E758460A992EAA51
:1037A00001F092FA00287FF400AE309E31ACFFF7B2
:1037B00098BA2D238DF88F30079B764268EB480826
:1037C000002BFFF64BAC0A2E78F100032AF0800A9A
:1037D000FFF449AC0AF48063CDE90B494FF0000CCB
:1037E0001C46DDF868905AA9069526E016EB0803FA
:1037F0004C4843F10003A0FB032020F0030202EB3E
:1038000090029B1A4FF0CC32B6464546F31A02FBA3
:1038100003F2444868F1000800FB0822A3FB0063A0
:10382000BEF10A0F13444FEA560675F100053946FA
:1038300046EAC3764FEA53082DD33A4D16EB0803F8
:1038400043F10003A5FB032020F0030202EB9002EA
:103850009B1AF31AA3FB053268F1000005FB002256
:103860005B0843EAC27303EB8303A6EB43033033E5
:103870000CF1010C4F1E01F8013C002CB6D099F858
:1038800000306345B2D1BCF1FF0FAFD00A2E78F102
:10389000000380F0EF83079A5AABDB1B9A42B8BF54
:1038A0001A46069DCDF868900B9CDDF83090CDF857
:1038B00044C00C9306929DF88F30FFF7E4BB584646
:1038C0000A992EAA01F000FA00287FF46EADDDE916
:1038D0002F860DF1C409ACE558460A992EAA01F0CD
:1038E000F3F900287FF461ADDDE92F860DF1C409FD
:1038F00090E51AF0010F3FF404AA96E498460023DD
:10390000FFF7C7B90E9B1A1D0E9B00211B680E9274
:10391000FFF746BB5146FFF7EDBB00BFE88E00083E
:10392000F88E0008CDCCCCCC0E9B1A1D0E9B8A467F
:103930001E680E924FEAE6784346FFF7E6BB0E9A02
:103940001AF0100852F8043B41F06F811AF0400160
:1039500000F03D839EB2079B8DF88F80002BFFF611
:103960007CAB2AF0800A002E7FF477AB079B0E9287
:10397000002B7FF4B3ABCDE90F330C931493069374
:103980000B935AAFFFF779B91AF0100F40F0D582B8
:103990001AF0400F40F09C841AF4007F00F0CD82B2
:1039A0000E9A089912681170FFF7D5BB5046FFF7C1
:1039B000EEBADDE9120102460B46FDF79DF8064618
:1039C000002841F01D80B9F1610F00F09985B9F12F
:1039D000410F00F0CD86079B013300F0C484B9F19C
:1039E000670F139B4AF4807800F09C87B9F1470F6A
:1039F00000F098870B90DDE91212002A1346C0F2FE
:103A0000898700231593DDE91223CDE91C23A9F151
:103A10004103252B00F21584DFE813F03F07130460
:103A200013041304B0041C05130413041304130437
:103A300013041304130413041304130413041304CE
:103A400013041304130413041304130413041304BE
:103A50001304130413041304130413043F0713047F
:103A600013041304B0041C05B8481AF0200600F033
:103A700075810E9B073323F007031A465E6852F8E0
:103A8000083B0E921AF0010200F0778153EA060219
:103A900000F0ED8130228DF8902000228DF88F20EB
:103AA000079A8DF89190002AC0F293812AF49062CF
:103AB00042F0020A03F00F02825C0AF002011B09C5
:103AC00043EA06738DF86721320953EA16160DF2A0
:103AD00067170BD003F00F06865D1B0943EA0273DC
:103AE000120907F8016D53EA0206F3D1079A5AAB9F
:103AF0004FF0000CDB1B9A42B8BF1A46CDE90FCC41
:103B00000C930692CDF82CC0CDF850C000293FF49C
:103B1000B4A8DDE92F06069B3146023306931AF05E
:103B20008403024608D1DDF824E0DDF81880AEEB0E
:103B30000808B8F1000F07DCBCF1000F3FF4BAA889
:103B40004FF00208FFF7A5B80223B2E580488CE7E2
:103B50000E928A46FFF782BA0E927D4A03F00F0753
:103B6000104602214FF07809D25D4AF0020AA6E71A
:103B70000E9B41AF1B688DF80431012306930C9313
:103B8000FFF754B958460A992EAA01F09DF800286B
:103B90007FF40BAC309E31ACFFF754BB079B3A4629
:103BA000062B28BF062307970B97CDE90F22694FF5
:103BB0000693CDF838800C931492FFF75EB840213D
:103BC0005846FDF7B7FE0A9B18601861002801F0FF
:103BD000518040230A9A5361FEF748BFB8F1100F95
:103BE0002F9B41F30D805C48224631464FF010096F
:103BF00006460A9C159006E00832A8F11008B8F1B4
:103C0000100F40F3BD8201331031072BC2E9006968
:103C1000CDE92F31F0DD214658462EAA01F054F8A7
:103C200000287FF4C2ABDDE92F3131AAE5E7119A14
:103C30003146BA18079222461C46109BDDF8508088
:103C4000002BCDF854A0DDF868901B9EDDF828A06D
:103C50000F95149731DDB8F1000F40F3128108F190
:103C6000FF382F98199B013031440728C2E90036EC
:103C700030912F9000F3A2800832079B99F8000042
:103C80001F1B8742A8BF0746002F0CDD2F98394421
:103C900001300728C2E9004730912F9000F33481AA
:103CA00099F800000832002FB4BF0546C51B002D4F
:103CB00015DC0444109B002BCDDCB8F1000FCEDCEA
:103CC0002346149F1446119A0E46BA18934228BFF1
:103CD00013460F9DDDF854A0CDF868905CE4102DDC
:103CE0002F981D4B23DD0C9410272C461D4604E015
:103CF000103C102C02F1080216DD0130164B103179
:103D00000728C2E90037CDE92F01F1DD51465846B9
:103D10002EAA00F0D9FF00287FF447ABDDE92F0180
:103D2000103C102C31AAE8DC2B4625460C9C0130B7
:103D300029440728CDE92F011360556000F39883CB
:103D400099F8000008320444B4E700BF408D000831
:103D50002C8D0008548D0008E88E00080E9A52F849
:103D6000043B0E921AF010027FF48CAE1AF0400160
:103D700000F04D8116469BB284E68DF88F20079A9D
:103D8000002A28DB53EA06022AF4906A7FF492AEF6
:103D9000079A002A00F0E080012AB8BF01220378C8
:103DA00006928DF86731012200230C92CDE90F3382
:103DB0000B930DF267171493FEF75FBF51465846F9
:103DC0002EAA00F081FF00287FF4EFAA309931AAD3
:103DD00053E74AF0020A03F00F020AF00201825C84
:103DE0002AF4806A6BE6012363602F9B9E4A0133AD
:103DF0000136072B30962F93226000F3E1810834BF
:103E0000002940F0AB80119A0AF0010313433EF4FD
:103E100078AF169B179A1E44C4E900232F9B309657
:103E20000133072B2F9300F3918204F10802A6E0DF
:103E300058460A992EAA159300F046FF00287FF4F1
:103E4000B4AA9DF88F20309E159B002A00F0A58013
:103E5000984631AC03462F98FEF71BBF079B5AAF1D
:103E6000CDE90F330C9314930B93FEF706BF00219B
:103E7000079B8DF88F108B42C0F2EE802AF4906A77
:103E800086E7109B09F1FF39013B1093E9E658469C
:103E90000A992EAA00F018FF00287FF486AA309E07
:103EA00031ACFFF7BDB9082200212CA82797FEF7F7
:103EB00013F9079B002BC0F2288100260695CDF848
:103EC0002C80354698460FE02CAB584641A901F0AE
:103ED000B7F9431C06F10406284400F0428540452A
:103EE00006DC00F0A8850546279B9A59002AEBD1ED
:103EF0000C95DDF82C80069D15E100225AABDB1BEA
:103F00000B920C93FFF7B0BB514658462EAA00F017
:103F1000DBFE00287FF449AA99F80000309931AA05
:103F2000C1E658460A992EAA00F0CEFE00287FF47A
:103F30003CAA309E31ACFEF7CCBE0E9A08991268AE
:103F40001160FFF708B949480E9201F00F024FF0D7
:103F500078090221825CB2E5079B0CE5169B179A53
:103F60001E44C4E900232F9B30960133072B2F9367
:103F700000F3EC8104F108020029C0F23B8411999E
:103F800001330E44072BCDE92F36176051603FF700
:103F900024AA02F10804FEF7B4BE002B00F0408111
:103FA00013462F9831ACFEF785BE1646984608F1A9
:103FB0000108159B2644B8F1070FCDE92F86C9F8F3
:103FC0000030C9F804407FF74DAAFFF764BB1AF42C
:103FD000007840F0288107991E4600298DF88F80CF
:103FE000FFF63BA82AF0800A002B7FF436A80B4688
:103FF0000E9200297FF472A8BDE41AF4007100F05B
:104000001C8101460E925046DBB2FEF7C9BF1AF47E
:1040100000761CBF0E46DBB234E51AF4007F14BFF5
:1040200046F3C0184FEAE678434618BF76B2FFF76A
:104030006CB82D238DF88F3003230C930423B9F132
:10404000470F0B96069300F35481CDE90F66084F96
:1040500007961496FEF711BE03782AF4806A8DF84D
:1040600067310DF2671741E55C8D00082C8D000863
:104070001C8D00081B9A1999BD1A284600F0E2FF12
:1040800099F801300BB109F101094FF0CC314FF033
:10409000010CB84A16EB080343F10003A2FB030E20
:1040A0002EF0030000EB9E001B1AF31A03FB01F134
:1040B00068F10008A3FB023002FB081123FA0CF39D
:1040C000014443EAC17621FA0CF816EB080343F1E8
:1040D0000003A2FB031020F0030101EB90015B1A27
:1040E000F31AA3FB023168F1000002FB001223FA6D
:1040F0000CF343EAC27303EB8303A6EB43033033B1
:104100006F1E05F8013CFFF7BABB2CAB00930023F0
:104110005846194627AA01F0B9F8034601330C9016
:1041200000F01F8427970C9B002B39D0632B00F3E2
:10413000F780002341AF0B93082200212CA8FDF744
:10414000CBFF0C9E2CAB009339463346584627AA2A
:1041500001F09CF8864240F0878500230C9ABB54FE
:1041600022EAE2719DF88F200691002A40F07683C2
:10417000CDE90F220792CDF838801492FEF77DBD6D
:1041800014460E460133159A4644072BCDE92F36C7
:104190002260C4F8048000F3CD800834FFF7F6B93C
:1041A0009DF88F30CDF83880003B18BF012306936F
:1041B0000C9BCDE90F33079314930B93FEF75DBD72
:1041C00058460A992EAA00F07FFD00287FF4EDA83A
:1041D0002599309E31AC13E69DF88F3006920C92F3
:1041E0005AAFFEF750BFDDF81CC04FF078090E92B1
:1041F000CDF840C0CDF850C0CDF830C0CDF83CC0AF
:10420000CDF818C05AAFCDF82CC082E407EB0108F6
:10421000A8EB03088F1AB845A8BFB846FFF7E9B95D
:1042200031ACFEF756BDDEB2079B8846002B8DF8F9
:104230008F10BFF696ABFEF710BF50460E92FEF7FA
:10424000AFBE079B58460193022300932CAB049307
:1042500027AB039325AB0293DDE91C2301F038F96A
:1042600007461AF0010F40F0AD82259A2C9BD11C15
:10427000A3EB070311930F92C0F233820799914287
:10428000C0F22081934200F3F4820F9B0C931AF446
:10429000806F03D00F9B002B00F3DB83C2464FF0EF
:1042A00067090C9B23EAE37306930023149310938E
:1042B000159B0AF00201002B00F0D0804FF02D0C6E
:1042C0008DF88FC0069B01330693002307931DE4EE
:1042D0000E9A089912681180FEF73DBF0A9C584655
:1042E00021462EAA00F0F0FCA38903F04003FEF75C
:1042F000A1BCCDE90F66204F07961496FEF7BDBC12
:104300003846FEF709FA9DF88F3020EAE0720C90EB
:104310000692CDF83880002B3EF4D3ADFEF7CEBD2B
:104320005846591CFDF706FB0746002800F08E840E
:104330000B9001E758460A992EAA00F0C5FC002808
:104340007FF433A8309E31ACFFF720B958460A9964
:104350002EAA00F0B9FC00287FF427A8DDE92F364B
:10436000259931AA08E606230B9007934AF4807832
:10437000FFF741BBCDCCCCCC208D00080223079A9F
:104380000132119200932CAB119E049327AB03933F
:1043900025AB019602935846DDE91C2301F098F8FD
:1043A00029F02003462B07460693064400F055816A
:1043B000DDE91C0100220023FCF76CFB002840F023
:1043C00015832C9B9E4240F20F834522069230219A
:1043D0005A1C2C9219702C9BB342F9D3DB1B1193FE
:1043E000259B0F93069B472B64D0069B462B00F022
:1043F0004F810F9B8DF8A090013B002B2593C0F2BD
:1044000077812B22092B8DF8A12000F37A813022AD
:104410008DF8A2200DF1A302303302F8013B28AB46
:10442000D31A1893119B189A012B1A440C9240F33B
:10443000A3820C9B169A13440C932AF4806343F4D2
:10444000807A00230C9ACDE90F3322EAE2721493AA
:1044500006922DE7079B1193032393E79DF88FC0E6
:10446000BCF1000F7FF42EAF159B0793FFF74EBBF7
:10447000514658462EAA00F027FC00287EF495AF3E
:1044800099F80000309931AA044413E458460A9977
:104490002EAA00F019FC00287EF487AF309E31ACC4
:1044A000FFF769B8259B0F93F31B1193069B472BCE
:1044B00040F0EE800F9B0333C0F21381079B0F9AED
:1044C00093420FDA0F9BA9F10209013B002B8DF8F3
:1044D000A090259395DA2D220F9B8DF8A120C3F192
:1044E000010394E7119B0F9A934200F3C2811AF0E3
:1044F000010F0F9B00F00683169A13440C93C6E637
:1045000047F63003ADF89030079B4AF0020A632B60
:1045100000F3DF81DDE91212002AC0F2B581DDE986
:10452000120125AA00F0FEFE00224FF07F53FBF798
:10453000ABFF02460B46CDE90C2300230022FCF71B
:10454000A9FA0346002800F0E0820123159625937E
:104550000B9641AFAD4B0693079BB846591E079586
:104560000F94CDF8409014978946DDE90C45069FDD
:10457000CDF844A007E000220023FCF78BFA0028C6
:1045800040F00C82D1460022A14B20462946FBF781
:104590007BFF0D460446FCF789F90646FBF70AFF48
:1045A00002460B4620462946FBF7B6FDBB5DB9F136
:1045B000FF3F424604460D4609F1FF3A08F8013B29
:1045C000D9D1CDE90C45DDE9109A079D914B0792B1
:1045D00000220F9C149FFCF785FA40B9DDE90C011D
:1045E00000228C4BFCF756FAE0B1F0071AD5079B76
:1045F0002C93069B18F8012CD97B4346914209D194
:10460000302003F8010C2C9B5A1E2C9213F8012C1D
:104610008A42F6D0392A0BBF069A0132927AD2B278
:1046200003F8012C259AA8EB07031193B9F1610F48
:1046300002F1FF33259300F0928250214FF041099F
:10464000002B8DF8A010C0F271822B22092B8DF85F
:10465000A12056DC0DF1A202DEE63B78302B00F003
:104660009081259B1E440022DDE91C010023FCF7FC
:1046700011FA00287FF416AF2C9B9E423FF6A7AE9E
:10468000DB1B1193259B0F93069B472B3FF412AF27
:104690000F99079A0AF00103002943EA020340F345
:1046A0007582002B40F0CE814FF066090F9B0C9372
:1046B0001AF4806F40F0CF810C9BC24623EAE3736B
:1046C0000693F2E558460A992EAA079300F0FCFAE1
:1046D00000287EF46AAE259A309E079B31ACFEF727
:1046E00070BF0F9BA9F10209013B8DF8A0902593A3
:1046F0002D220F9B8DF8A120C3F10103092B7FF719
:1047000086AE0DF1B70C6246DFF80CE11E4610468E
:10471000AEFB0321C90801EB8102A3EB4202303258
:10472000632E00F8012C0B4600F1FF32EEDC303333
:1047300002F8013C831E634580F04E820DF1A10218
:1047400013F8011B634502F8011FF9D103F5B47397
:104750006B44C43B1B1A28AA9B1A189362E62F4885
:104760001590FEF7D7BF00230D460793FEF7BEB99D
:1047700045F63003ADF89030079B4AF0020A632BF0
:1047800000F3A780DDE91212002A7DDBDDE91201CA
:1047900025AA00F0C7FD00224FF07F53FBF774FEFF
:1047A00002460B46CDE90C2300220023FCF772F9E8
:1047B00008B1012325930023194A1593069241AFAE
:1047C0000B93C9E647230693079BFE184BE7584611
:1047D0000A992EAA00F078FA00287EF4E6AD259F0B
:1047E000119B309E31ACDF1BFEF703BF0B4A1592C5
:1047F000FEF794BEC1F10008103180F23282094800
:10480000314610240646159014E000BF2C8D000898
:10481000000030400000E03FCDCCCCCCF88E00084A
:10482000408D0008E88E00080832A8F11008B8F1A1
:10483000100F5CDD01331031072BC2E90064CDE9B4
:104840002F31F1DD58460A992EAA00F03DFA0028D2
:104850007EF4ABADDDE92F3131AAE6E7069ACDE96A
:104860000F3301320793CDF8388006921493FEF788
:1048700004BA119B169A9A180F9B0C92002B40F3C6
:1048800011814FF0670913E713461C912D2103F1A5
:1048900000430B96159141AF1D9325AADDE91C013C
:1048A00000F040FD00224FF07F53FBF7EDFD024684
:1048B0000B46CDE90C2300220023FCF7EBF808B1EE
:1048C00001232593B9F1610F3FF444AEAA4B06933F
:1048D00042E6079B5846591CFDF72CF8074600286E
:1048E00000F096810B904AF48078FFF784B80E466A
:1048F000013315994644072BCDE92F361160C2F8D4
:10490000048000F3DB800832FFF739BB9B4B159323
:10491000FEF7FEBC1C912D2103F1004315911D9360
:10492000FFF775B8079A002A00F0F580002BC0F257
:104930004A81DDE91223CDE91C231596079B5846D1
:104940000193022300932CAB049327AB039325AB75
:104950000293DDE91C2300F0BBFD002307460B9307
:104960007FE400220A9B0B92B3F90C3043F0400322
:104970000A9A9381FEF719BD1AF0010F3FF45DAD5D
:1049800057E50022DDE91C010023FCF783F800282D
:1049900000F0D580259B0F931E4485E54946DDE94F
:1049A000109A0029079D0F9C149FFFF63BAE4246CC
:1049B00030204B1C434402F8010B9A42FBD108EB18
:1049C000010303F101082DE6CDF83880002B00F03B
:1049D000BB80079B4FF073090C930133069307903C
:1049E00014901090FEF749B9DB1B1193259B0F9390
:1049F000FFE403220023CDE90B320422FEF738B98D
:104A0000139B2AF0800A13F000430F9363D02D23E9
:104A100003228DF88F300023CDE90B320422B9F147
:104A2000470F069240F3C880CDE90F33544F0793E8
:104A30001493FEF722B9079B069DDDF82C800C939A
:104A4000FFF771BB169B0A44D3184FF066090C930D
:104A50002EE64FF067091A990B78FF2B00F0FD80C6
:104A600000260F9A304603E001300131FF2B08D0B9
:104A7000934206DAD21A4B78002BF5D10B78013627
:104A8000F4E7CDE90F201A911496109A149B1B9904
:104A900013440C9AC24601FB03230C9323EAE373ED
:104AA000069305E4C3F101031A4422EAE273C24605
:104AB0004FF067090C920693FFF7F7BB58460A9927
:104AC0002EAA00F001F900287EF46FACDDE92F3644
:104AD00031AAFFF754BA9DF88F30B9F1470FCCBF18
:104AE000274F284F002B40F0A680032207930C92FB
:104AF000149310930B930692FEF7BFB81F4A1592BA
:104B0000FEF761BC0C93FFF7C2BB1F4A15930692D8
:104B100041AF0B9320E5002B23DB079B159301236B
:104B20000793DDE91223CDE91C2307E7C2F1010356
:104B30002D22092B8DF8A1203FF7E3AD8AE5119BCB
:104B4000C3F1010325938DE5079B4FF073090C9387
:104B500006930B9B149310930793FEF78EB8702166
:104B60006EE52D21DDE912231591012103F10043AA
:104B70001C9207911D93E1E6408D0008E88E000825
:104B8000288D0008248D00082C8D0008C24633B9FA
:104B900001234FF0660906930C93FFF786BB169B23
:104BA00003F10109079B4B440C9323EAE3734FF095
:104BB00066090693FFF779BBCDE90F332F4F0793B3
:104BC0001493FEF75AB82D21DDE9122303F10043B7
:104BD0001C9215911D93B1E60223189322E4CDE9AE
:104BE0000F330B931493FEF748B80E9A6B780D466B
:104BF00052F8041B0E9241EAE1720792FDF774BF6E
:104C00001F4A1592FFF7BEBA1D4B1593FFF7CFB998
:104C10000A9A938943F0400393814FF0FF3308933E
:104C2000FEF70BB85146FEF781BE5146FEF705BAB6
:104C30005046FEF769BE032200230C92042207931C
:104C40000692149310930B93FEF717B80A9B0B90E0
:104C5000B3F90C3043F040038AE600231493109319
:104C600013E70749159143E60A9BB3F90C3043F06B
:104C700040037DE60C23CBF80030CEE7248D0008FE
:104C8000E88E00082DE9F8434FF0000980460F46F2
:104C90001646D6E90154013D10D4A389012B08D949
:104CA000B4F90E30013304D021464046B84749EAF2
:104CB0000009013D6B1C04F16804EED13668002E3A
:104CC000E7D14846BDE8F8832DE9F04115469268E2
:104CD0002C68FAB107468846083402E013460834C7
:104CE000C3B16B685E1E002B6E6013DD54F8046C5C
:104CF000002EF3D033464146384654F8082C01F0D4
:104D0000E3FF431C07D0AA680834921B1346AA602D
:104D1000002BE6D100200023C5E90133BDE8F08176
:104D200070B500293FD006460C4610B1436B002BEE
:104D30003CD0636EB4F90C20DD0732D4900538D531
:104D40002146304600F04CF8E36A054633B1304660
:104D5000E16998470028B8BF4FF0FF35A3891A06CC
:104D600039D4216B41B104F14003994202D030465D
:104D7000FDF76CFD00232363616C21B13046FDF724
:104D800065FD00236364FDF761F90022636EA28173
:104D9000DB071CD5A06DFDF7B9FCFDF75DF92846D2
:104DA00070BD002ACCD10025284670BDFDF730F932
:104DB000BFE7A06DFDF7ACFCB4F90C30002BBFD100
:104DC000636ED907EFD4A06DFDF7A4FCEBE7A06DEF
:104DD000FDF7A0FCDEE730462169FDF737FDC0E7AF
:104DE000B1F90C20F8B513070C46074648D44968BA
:104DF00042F400630029A3815FDDA66A002E3DD046
:104E0000002112F480523D68396062D10123384696
:104E1000E169B047461C024668D0B4F90C30A66A76
:104E2000580705D56368D21A236B0BB1E36BD21A0E
:104E30000023E1693846B047411CB4F90C304AD12F
:104E400039681D293FD82E4ACA40D2073BD50022D7
:104E500062602269DE04226023F40062A28101D52F
:104E6000002941D0216B3D6041B104F140039942DA
:104E700002D03846FDF7EAFC002323630020F8BD8A
:104E80000E69002EFAD0920718BF00230D6808BFE4
:104E90004B690E60AD1B8B600CE02B463246D4F89C
:104EA00024C03846E169E047B0F1000CA5EB0C05E1
:104EB000664406DD002DF0DCE0E7E16B00299CDCB8
:104EC000DCE7B4F90C3043F040034FF0FF30A3812E
:104ED000F8BD226DA4E7002262602269226023F4FB
:104EE0000062DB04A281BDD52065BBE73B68002BD7
:104EF00093D01D2B01D0162BE3D13D60BEE700BF40
:104F00000100402038B505460C4608B1436B03B399
:104F1000B4F90C0088B1636EDB0701D481050FD5AD
:104F200028462146FFF75CFF636E0546DA0702D488
:104F3000A3899B0508D5284638BD0546284638BDB7
:104F4000A06DFDF7E5FBEBE7A06DFDF7E3FB284661
:104F500038BDFDF75DF8DBE710B50C46B1F90E1072
:104F600000F0EEF8002803DB236D0344236510BD39
:104F7000A38923F48053A38110BD00BF2DE9F04124
:104F80000C46B1F90C101F46CB05054616460BD44E
:104F900021F48051A1813B4632462846B4F90E10D7
:104FA000BDE8F04100F0E2B8B4F90E10022300228F
:104FB00000F0B0F8B4F90C10EAE700BF10B50C46E9
:104FC000B1F90E1000F0A6F8B4F90C30421C0EBF77
:104FD00023F4805343F480532065A38110BD00BFA8
:104FE000B1F90E1000F084B8032A30B412D941EAA6
:104FF0000004A40784460B4621D11946604653F8A5
:10500000044B5CF8045BA54219D1043A032AF4D896
:1050100060461946541E7AB1431E0139021901E057
:105020009A4209D013F8010F11F801CF6045F7D06B
:10503000A0EB0C0030BC7047002030BC7047541E01
:10504000EAE700BF40EA01039B0710B524D1032A19
:1050500022D98E468446DEF800407146A4F1013321
:1050600023EA040313F0803F0EF1040E15D1043A35
:10507000032A4CF8044BEED8714601F1FF3E52B1C1
:1050800063461EF8011F541E03F8011B41B122465E
:105090009C46002AF4D110BD844601F1FF3EEEE7A4
:1050A0009444002CF7D003F8011B6345FBD110BDDD
:1050B00089B1034610B401EB000C01E09C4507D018
:1050C0001A4614780133002CF8D1101A10BC70471E
:1050D000084610BC70470846704700BF014B93F864
:1050E00028017047640500200048704754060020DE
:1050F000002238B5064D044608462A60FBF7C1FD7C
:10510000431C00D038BD2B68002BFBD0236038BD7A
:105110007C0A002038B50C46114600228446074D13
:1051200020462A601A466446FBF7B5FD431C00D0B2
:1051300038BD2B68002BFBD0236038BD7C0A0020D3
:1051400038B50C46114600228446074D20462A6099
:105150001A466446FBF777FD431C00D038BD2B6828
:10516000002BFBD0236038BD7C0A002038B50C46EC
:10517000114600228446074D20462A601A4664469E
:10518000FBF771FD431C00D038BD2B68002BFBD012
:10519000236038BD7C0A002038B5074D074C2C1B16
:1051A000A41005D0013C55F8043D9847002CF9D1D6
:1051B000BDE8384003F046BD3C9100083891000836
:1051C00030B586468007CCB215D0F4460EEB02050A
:1051D00007E0634613F8011BA14206D0990705D0EA
:1051E0009C4665456046F4D1002030BD013A7244CA
:1051F0009E46A2EB0C02032A0CD8002AF4D0734678
:10520000724401E09A42EFD0184613F8011BA14204
:10521000F8D130BD714604EB042505EB05458E46FB
:1052200051F8043B6B40A3F1013020EA030313F073
:10523000803FE4D1043A032AF1D88E46DDE700BF6F
:1052400070B5054684B05BB11C460F4BD3F8E060E7
:10525000234669B12846B047431C0FD004B070BD47
:10526000094B00F58274D3F8E06023460029F1D1A0
:105270000A46284601A9B047431CEFD100228A23E1
:1052800022602B6004B070BD6405002010B51C4680
:1052900082B0049B009401934FF0FF3301F078FE3D
:1052A00002B010BD2DE9F8431B4D0646286898460C
:1052B0000F469146FDF72CFA184B1C681CB3286862
:1052C00065681F2D22DC4EB96B1C0235636044F803
:1052D0002570FDF71FFA0020BDE8F883012304EBD9
:1052E0008501C1F88890D4F88821AB401A43022E7A
:1052F000C4F88821C1F80881E6D1D4F88C211A437A
:10530000C4F88C21E0E7064C1C60D8E7FDF702FAF0
:105310004FF0FF30E0E700BF60050020780A002072
:10532000800A0020F8B50027DFF858C021F00043BC
:10533000634504460D46176021D8844653EA0C0C99
:105340001DD0DFF844C0164601EA0C0C0A46BCF139
:10535000000F09D100220D4BFBF796F86FF03507CF
:1053600004460A4621F000431B156FF31E52A3F2B8
:10537000FE333B4442F07F55336045F40015204630
:105380002946F8BDFFFFEF7F0000F07F000050438B
:105390002DE9F04F03690C6985B0A342C0F29180FA
:1053A0008146013C01F1140509F1140855F8243037
:1053B00058F824C001339C45BCFBF3F64FEA840047
:1053C00005EB840708EB840243D34FF0000CAA4698
:1053D000CDE90105C646634665469346CDF80C8087
:1053E0005AF8040BDEF800201FFA80FC06FB0C556F
:1053F0004FEA10484FEA154C06FB08CCADB290B20C
:10540000401B18441FFA8CF3C3EB204303EB1243F9
:1054100080B240EA034057454EF8040B4FEA1C4562
:105420004FEA2343DCD2DDE90105DDF80C8058F8B2
:10543000003073B9ABF10402904504D307E0904506
:1054400004F1FF3403D252F80439002BF7D0C9F825
:105450001040484601F00AFB00282EDB414600229E
:1054600055F8040BD1F800C01FFA80FE1FFA8CF328
:10547000A3EB0E031344020CC2EB234202EB1C42CB
:105480009BB243EA0243AF4241F8043B4FEA224257
:10549000E6D258F8242008EB84036AB9043B43455C
:1054A00004D807E0984504F1FF3403D253F80429E7
:1054B000002AF7D0C9F810400136304605B0BDE8E3
:1054C000F08F002005B0BDE8F08F00BF00000000A5
:1054D0002DE9F04F16461F46816B9FB00446CDE97B
:1054E00004672B9D41B10123C26B93408B604A60DE
:1054F00001F042F80023A363B7F10009B4BF012310
:1055000000232B60B44BBCBF29F00049CDF81490A8
:1055100033EA090300F0A480DDE9042310461946AC
:1055200000220023CDE90201FBF7B4FA824668B1FC
:1055300001232A9A13602C9B13B1A84B2C9A136059
:10554000A74B079307981FB0BDE8F08F1CAB0193E2
:105550001DAB00932046DDE9022301F059FB5FEA11
:105560001955DDF87080099040F090801D9D4544EC
:1055700005F23243202B40F32D82C3F1400309FA98
:1055800003F905F2124326FA03F349EA0300FAF796
:1055900001FF0123013D1093A1F1F8731946002288
:1055A000904BFAF7B9FD86A3D3E90023FAF76CFF15
:1055B00085A3D3E90023FAF7B1FD064628460F4636
:1055C000FAF7F8FE82A3D3E90023FAF75DFF02465B
:1055D0000B4630463946FAF7A1FD06460F46FBF763
:1055E00065F9002281460890002330463946FBF7D2
:1055F0005BFA002840F01581A8EB0508089D08F12A
:10560000FF3B162D00F2F880DDE90201764A02EB3D
:10561000C503D3E90023FBF747FA002840F0D48103
:10562000B8F1000F0D9040F38A85AB440C950A90B9
:1056300000230B93289B092B3CD8052BC4BF043BAC
:105640002893289BC8BF0025A3F10203D8BF0125DA
:10565000032B31D8DFE813F0ED02EA02DF02C701C5
:1056600042F20F732A9AC9F3130959EA0609136023
:1056700019D12C9B002B00F02E875C4B079308332D
:105680002C9A079813601FB0BDE8F08FDDE9020186
:10569000C1F3130343F07F53CDF840A0A5F2FF35CB
:1056A00043F440137AE72C9B002B40F09881504B39
:1056B000079347E700232893002520462946E56302
:1056C00000F034FF0790002800F0AE86079BA3632C
:1056D0001D9B002BC0F2B380089A0E2A00F3AF8006
:1056E000DDE90289404B404603EBC203D3E9006782
:1056F000494632463B46CDE90467FAF7EFFFFBF730
:10570000D5F80546FAF756FE32463B46FAF7BCFE98
:105710004FF0FF3A0B46024649464046FAF7FCFC7A
:1057200005F13003079D05F8013B02944FF0010994
:105730005446DDE904AB1DE052465B46304639462F
:10574000FAF7CCFFFBF7B2F88046FAF733FE524681
:105750005B46FAF799FE09F101090B460246394604
:105760003046FAF7D9FC08F13003A14505F8013BB2
:1057700000F0428500221F4BFAF786FE002200232C
:1057800006460F46FBF786F90028D5D0AB46089FA2
:10579000029C01372046099900F0EEFE00238BF8A9
:1057A00000302A9B1F602C9B002B3FF4CBAE079848
:1057B000C3F800B01FB0BDE8F08F00BFAFF30080AA
:1057C00061436F63A787D23FB3C8608B288AC63F07
:1057D000FB799F501344D33F0000F07F5D8D00089C
:1057E0005C8D00080000F83F40900008A88D00087C
:1057F000B48D00080000244001230D93BBF1000F7D
:10580000C0F2DC8000230A93089B002B80F2D38037
:105810000A9A089BD21A0A9200225B420C920B93BE
:1058200008E74846FAF7C6FD32463B46FBF732F931
:1058300000287FF4E1AE09F1FF330893DCE64FF076
:10584000FF3A2995CDF850A0109A002A40F0F48133
:105850001C9B0B9FC3F136030A9A01212046D518E1
:105860009B4400F04DFF0A9A0646002A40F08283CE
:105870000B9B002B00F0F683002F40F0DA832046CC
:105880000B9A099901F01EF8012309900B9301214D
:10589000204600F035FF0C9B0290002B40F0048363
:1058A000289B012B40F38C830120584410F01F00EB
:1058B00000F0CA81C0F12003042B40F39A830A9BB5
:1058C000C0F11C00034405440A938344002D05DD08
:1058D0002A462046099901F055F80990BBF1000FBE
:1058E00005DD5A462046029901F04CF802900D9BC6
:1058F000002B40F0EF82BAF1000F40F3B0820B9B17
:10590000002B40F0FC81089F01370125DDF81C8049
:10591000DDF824B0DDF8089007E0594600230A229C
:10592000204600F033FE8346013549465846FFF7CE
:105930002FFD554500F1300008F8010BEDDBBAF101
:10594000000F0AF1FF35D8BF0025079B81465A1C7E
:1059500005EB020A0025CDF824B001220999204662
:1059600001F010F80299099001F080F8002840F346
:105970007C83079A02E0924500F082831AF8013C8A
:10598000D346392B0AF1FF3AF5D001338AF80030BB
:105990002046029900F0F0FD002E3FF4FBAE2DB141
:1059A000B54203D02946204600F0E6FD31462046A8
:1059B00000F0E2FDEEE69B440C9339E6C8F10103EA
:1059C0004FF0000B0A931FE7089B013B089300234D
:1059D0000D9313E7C3F1200306FA03F0D7E59E4BBE
:1059E000079303334CE601231293299B089A13442F
:1059F00003F1010A5646012EB8BF01261493172E53
:105A000040F36085012204235B0003F11400B042DF
:105A1000114602F10102F7D9E163204600F086FD4C
:105A20000790002800F00085BAF10E0FA06300F285
:105A30002181002D00F01E81089A002A40F3568330
:105A4000864902F00F0301EBC303D1054FEA22158B
:105A5000D3E9006740F1EE83DDE90201804B4FF0AE
:105A60000309D3E90823FAF739FECDE90E0105F061
:105A70000F0585B1DFF8E881EA0740F1E180F8E839
:105A8000022330463946FAF7FFFC6D1006460F46F2
:105A900009F10109F0D1DDE90E0132463B46FAF782
:105AA0001DFECDE90E010D9B53B1DDE90E6700220D
:105AB000304639466B4BFAF7F7FF002840F06E840A
:105AC0004846FAF777FCDDE90E23FAF7DDFC002201
:105AD000654BFAF723FB0646A1F15077BAF1000FA8
